{"abi":[{"type":"constructor","inputs":[{"name":"initialOwner","type":"address","internalType":"address"},{"name":"outbox_","type":"address","internalType":"contract Cred402ReceiptOutbox"}],"stateMutability":"nonpayable"},{"type":"function","name":"acceptSettlement","inputs":[{"name":"receiptId","type":"bytes32","internalType":"bytes32"},{"name":"originChain","type":"string","internalType":"string"},{"name":"payerAgentId","type":"string","internalType":"string"},{"name":"sellerAgentId","type":"string","internalType":"string"},{"name":"asset","type":"string","internalType":"string"},{"name":"amount","type":"string","internalType":"string"},{"name":"paymentProofHash","type":"bytes32","internalType":"bytes32"},{"name":"settlementTxHash","type":"bytes32","internalType":"bytes32"},{"name":"createdAt","type":"uint64","internalType":"uint64"}],"outputs":[],"stateMutability":"nonpayable"},{"type":"function","name":"outbox","inputs":[],"outputs":[{"name":"","type":"address","internalType":"contract Cred402ReceiptOutbox"}],"stateMutability":"view"},{"type":"function","name":"owner","inputs":[],"outputs":[{"name":"","type":"address","internalType":"address"}],"stateMutability":"view"},{"type":"function","name":"setSettler","inputs":[{"name":"settler","type":"address","internalType":"address"},{"name":"allowed","type":"bool","internalType":"bool"}],"outputs":[],"stateMutability":"nonpayable"},{"type":"function","name":"settledTx","inputs":[{"name":"","type":"bytes32","internalType":"bytes32"}],"outputs":[{"name":"","type":"bool","internalType":"bool"}],"stateMutability":"view"},{"type":"function","name":"settlers","inputs":[{"name":"","type":"address","internalType":"address"}],"outputs":[{"name":"","type":"bool","internalType":"bool"}],"stateMutability":"view"},{"type":"function","name":"transferOwnership","inputs":[{"name":"newOwner","type":"address","internalType":"address"}],"outputs":[],"stateMutability":"nonpayable"},{"type":"event","name":"OwnershipTransferred","inputs":[{"name":"previousOwner","type":"address","indexed":true,"internalType":"address"},{"name":"newOwner","type":"address","indexed":true,"internalType":"address"}],"anonymous":false},{"type":"event","name":"SettlementAccepted","inputs":[{"name":"receiptId","type":"bytes32","indexed":true,"internalType":"bytes32"},{"name":"settlementTxHash","type":"bytes32","indexed":true,"internalType":"bytes32"},{"name":"settler","type":"address","indexed":true,"internalType":"address"}],"anonymous":false},{"type":"event","name":"SettlerSet","inputs":[{"name":"settler","type":"address","indexed":true,"internalType":"address"},{"name":"allowed","type":"bool","indexed":false,"internalType":"bool"}],"anonymous":false},{"type":"error","name":"AlreadySettled","inputs":[{"name":"settlementTxHash","type":"bytes32","internalType":"bytes32"}]},{"type":"error","name":"NotOwner","inputs":[{"name":"caller","type":"address","internalType":"address"}]},{"type":"error","name":"NotSettler","inputs":[{"name":"caller","type":"address","internalType":"address"}]},{"type":"error","name":"ZeroOwner","inputs":[]}],"bytecode":{"object":"0x60a03461011a5761071590601f38839003908101601f19168201906001600160401b0382118383101761011e578083916040958694855283398101031261011a5780516001600160a01b0380821692909183900361011a5760200151908116810361011a578115610109575f80546001600160a01b0319168317815583517fbfa6acf022b8bc9f4df4ed4ce022b7d18db613e8a4864052b907aac9a7521b139260209285907f8be0079c531659141344cd1fd0a4f28419497f9722a3daafe3b4186f6b6457e08180a3608052835f5260018252845f20600160ff1982541617905560018152a2516105e29081610133823960805181818161014a015281816102f701526103d10152f35b8251639905827b60e01b8152600490fd5b5f80fd5b634e487b7160e01b5f52604160045260245ffdfe6080806040526004361015610012575f80fd5b5f905f3560e01c90816377a35465146104ae57508063807720c1146101df5780638da5cb5b146101b8578063c70a900f14610179578063ce11e6ab14610134578063dac0cc57146101055763f2fde38b1461006b575f80fd5b3461010257602036600319011261010257610084610548565b8154906001600160a01b0380831691338390036100ea57169182156100d8576001600160a01b031916821783557f8be0079c531659141344cd1fd0a4f28419497f9722a3daafe3b4186f6b6457e08380a380f35b604051639905827b60e01b8152600490fd5b60405163245aecd360e01b8152336004820152602490fd5b80fd5b50346101025760203660031901126101025760ff60406020926004358152600284522054166040519015158152f35b50346101025780600319360112610102576040517f00000000000000000000000000000000000000000000000000000000000000006001600160a01b03168152602090f35b50346101025760203660031901126101025760209060ff906040906001600160a01b036101a4610548565b168152600184522054166040519015158152f35b5034610102578060031936011261010257546040516001600160a01b039091168152602090f35b5034610478576101203660031901126104785760243567ffffffffffffffff81116104785761021290369060040161055e565b60443567ffffffffffffffff81116104785761023290369060040161055e565b9060643567ffffffffffffffff81116104785761025390369060040161055e565b9060843567ffffffffffffffff81116104785761027490369060040161055e565b909160a43567ffffffffffffffff81116104785761029690369060040161055e565b949095610104359767ffffffffffffffff8916890361047857335f52600160205260ff60405f205416156104965760e4355f52600260205260ff60405f20541661047c5760e4355f908152600260205260409020805460ff191660011790557f00000000000000000000000000000000000000000000000000000000000000006001600160a01b03163b15610478576040516302279b9760e31b8152600480359082015261012060248201529a8b9a610355916101248d01919061058c565b906003198b83030160448c015261036b9261058c565b906003198983030160648a01526103819261058c565b906003198783030160848801526103979261058c565b906003198583030160a48601526103ad9261058c565b60c480359084015260e480359084015267ffffffffffffffff9091166101048301527f00000000000000000000000000000000000000000000000000000000000000006001600160a01b031691839103815a5f948591f1801561046d5761043e575b503360e4356004357f142c6e75db69dcad6b2582ab9897cca2eaed5d42f4ecafc1f36cdfa6213e25ee8480a480f35b905067ffffffffffffffff8111610459576040525f8061040f565b634e487b7160e01b5f52604160045260245ffd5b6040513d5f823e3d90fd5b5f80fd5b6040516358cb522560e11b815260e4356004820152602490fd5b60405163f604cfe760e01b8152336004820152602490fd5b34610478576040366003190112610478576104c7610548565b9060243591821515809303610478575f546001600160a01b0392908316330361053357507fbfa6acf022b8bc9f4df4ed4ce022b7d18db613e8a4864052b907aac9a7521b13916020911692835f526001825260405f2060ff1981541660ff8316179055604051908152a2005b63245aecd360e01b8152336004820152602490fd5b600435906001600160a01b038216820361047857565b9181601f840112156104785782359167ffffffffffffffff8311610478576020838186019501011161047857565b908060209392818452848401375f828201840152601f01601f191601019056fea2646970667358221220d871d50d6a16e71f86c4663170d9f27098a46907be37b649d84034d7b7a5548264736f6c63430008180033","linkReferences":{}},"methodIdentifiers":{"acceptSettlement(bytes32,string,string,string,string,string,bytes32,bytes32,uint64)":"807720c1","outbox()":"ce11e6ab","owner()":"8da5cb5b","setSettler(address,bool)":"77a35465","settledTx(bytes32)":"dac0cc57","settlers(address)":"c70a900f","transferOwnership(address)":"f2fde38b"},"id":9}