{"abi":[{"type":"constructor","inputs":[{"name":"initialOwner","type":"address","internalType":"address"}],"stateMutability":"nonpayable"},{"type":"function","name":"emitters","inputs":[{"name":"","type":"address","internalType":"address"}],"outputs":[{"name":"","type":"bool","internalType":"bool"}],"stateMutability":"view"},{"type":"function","name":"getReceipt","inputs":[{"name":"receiptId","type":"bytes32","internalType":"bytes32"}],"outputs":[{"name":"","type":"tuple","internalType":"struct Cred402ReceiptOutbox.ReceiptCommitment","components":[{"name":"receiptId","type":"bytes32","internalType":"bytes32"},{"name":"originChain","type":"string","internalType":"string"},{"name":"payerAgentId","type":"string","internalType":"string"},{"name":"sellerAgentId","type":"string","internalType":"string"},{"name":"paymentProofHash","type":"bytes32","internalType":"bytes32"},{"name":"settlementTxHash","type":"bytes32","internalType":"bytes32"},{"name":"createdAt","type":"uint64","internalType":"uint64"},{"name":"recordedAt","type":"uint64","internalType":"uint64"},{"name":"exists","type":"bool","internalType":"bool"}]}],"stateMutability":"view"},{"type":"function","name":"hasReceipt","inputs":[{"name":"receiptId","type":"bytes32","internalType":"bytes32"}],"outputs":[{"name":"","type":"bool","internalType":"bool"}],"stateMutability":"view"},{"type":"function","name":"owner","inputs":[],"outputs":[{"name":"","type":"address","internalType":"address"}],"stateMutability":"view"},{"type":"function","name":"publishReceipt","inputs":[{"name":"receiptId","type":"bytes32","internalType":"bytes32"},{"name":"originChain","type":"string","internalType":"string"},{"name":"payerAgentId","type":"string","internalType":"string"},{"name":"sellerAgentId","type":"string","internalType":"string"},{"name":"asset","type":"string","internalType":"string"},{"name":"amount","type":"string","internalType":"string"},{"name":"paymentProofHash","type":"bytes32","internalType":"bytes32"},{"name":"settlementTxHash","type":"bytes32","internalType":"bytes32"},{"name":"createdAt","type":"uint64","internalType":"uint64"}],"outputs":[],"stateMutability":"nonpayable"},{"type":"function","name":"receiptCount","inputs":[],"outputs":[{"name":"","type":"uint256","internalType":"uint256"}],"stateMutability":"view"},{"type":"function","name":"receiptIdAt","inputs":[{"name":"index","type":"uint256","internalType":"uint256"}],"outputs":[{"name":"","type":"bytes32","internalType":"bytes32"}],"stateMutability":"view"},{"type":"function","name":"setEmitter","inputs":[{"name":"emitter","type":"address","internalType":"address"},{"name":"allowed","type":"bool","internalType":"bool"}],"outputs":[],"stateMutability":"nonpayable"},{"type":"function","name":"transferOwnership","inputs":[{"name":"newOwner","type":"address","internalType":"address"}],"outputs":[],"stateMutability":"nonpayable"},{"type":"event","name":"EmitterSet","inputs":[{"name":"emitter","type":"address","indexed":true,"internalType":"address"},{"name":"allowed","type":"bool","indexed":false,"internalType":"bool"}],"anonymous":false},{"type":"event","name":"OwnershipTransferred","inputs":[{"name":"previousOwner","type":"address","indexed":true,"internalType":"address"},{"name":"newOwner","type":"address","indexed":true,"internalType":"address"}],"anonymous":false},{"type":"event","name":"ReceiptCreated","inputs":[{"name":"receiptId","type":"bytes32","indexed":true,"internalType":"bytes32"},{"name":"originChain","type":"string","indexed":false,"internalType":"string"},{"name":"payerAgentId","type":"string","indexed":false,"internalType":"string"},{"name":"sellerAgentId","type":"string","indexed":false,"internalType":"string"},{"name":"asset","type":"string","indexed":false,"internalType":"string"},{"name":"amount","type":"string","indexed":false,"internalType":"string"},{"name":"paymentProofHash","type":"bytes32","indexed":false,"internalType":"bytes32"},{"name":"settlementTxHash","type":"bytes32","indexed":false,"internalType":"bytes32"},{"name":"createdAt","type":"uint64","indexed":false,"internalType":"uint64"}],"anonymous":false},{"type":"error","name":"NotEmitter","inputs":[{"name":"caller","type":"address","internalType":"address"}]},{"type":"error","name":"NotOwner","inputs":[{"name":"caller","type":"address","internalType":"address"}]},{"type":"error","name":"ReceiptExists","inputs":[{"name":"receiptId","type":"bytes32","internalType":"bytes32"}]},{"type":"error","name":"ZeroOwner","inputs":[]},{"type":"error","name":"ZeroReceiptId","inputs":[]}],"bytecode":{"object":"0x6080346100f357601f610e3b38819003918201601f19168301916001600160401b038311848410176100f7578084926020946040528339810103126100f357516001600160a01b038116908190036100f35780156100e1575f80546001600160a01b031916821781556040517fc60435d9cd8ec0707bb194bc57f43f8100254a04fbfa4efa31fdd0687cb1ad50916020919084907f8be0079c531659141344cd1fd0a4f28419497f9722a3daafe3b4186f6b6457e08180a3835f526003825260405f20600160ff1982541617905560018152a2604051610d2f908161010c8239f35b604051639905827b60e01b8152600490fd5b5f80fd5b634e487b7160e01b5f52604160045260245ffdfe60806040526004361015610011575f80fd5b5f3560e01c8063113cdcb81461041257806343f7aeda1461038f5780637f038f3c146103725780638da5cb5b1461034b578063d99639b01461031f578063f2fde38b14610287578063f4e98e0b14610252578063f8617466146102155763fcecbb611461007c575f80fd5b34610211576020366003190112610211575f61010060405161009d81610b34565b82815260606020820152606060408201526060808201528260808201528260a08201528260c08201528260e082015201526004355f52600160205260405f2060ff6006604051926100ed84610b34565b805484526100fd60018201610c57565b602085015261010e60028201610c57565b604085015261011f60038201610c57565b606085015260048101546080850152600581015460a085015201546001600160401b03811660c08401526001600160401b038160401c1660e084015260801c1615156101008201526040518091602082528051602083015260208101516101006101cb61019a61012093846040880152610140870190610af6565b6101b6604086015191601f1992838983030160608a0152610af6565b90606086015190878303016080880152610af6565b92608081015160a086015260a081015160c08601526001600160401b0360c08201511660e08601526001600160401b0360e0820151168286015201511515908301520390f35b5f80fd5b34610211576020366003190112610211576001600160a01b03610236610ae0565b165f526003602052602060ff60405f2054166040519015158152f35b34610211576020366003190112610211576004355f526001602052602060ff600660405f20015460801c166040519015158152f35b34610211576020366003190112610211576102a0610ae0565b5f54906001600160a01b03808316913383900361030757169182156102f5576001600160a01b03191682175f9081557f8be0079c531659141344cd1fd0a4f28419497f9722a3daafe3b4186f6b6457e09080a3005b604051639905827b60e01b8152600490fd5b60405163245aecd360e01b8152336004820152602490fd5b3461021157602036600319011261021157602061033d600435610bee565b90546040519160031b1c8152f35b34610211575f366003190112610211575f546040516001600160a01b039091168152602090f35b34610211575f366003190112610211576020600254604051908152f35b34610211576040366003190112610211576103a8610ae0565b60243590811515809203610211575f546001600160a01b03919082163303610307577fc60435d9cd8ec0707bb194bc57f43f8100254a04fbfa4efa31fdd0687cb1ad50916020911692835f526003825260405f2060ff1981541660ff8316179055604051908152a2005b3461021157610120366003190112610211576024356001600160401b03811161021157610443903690600401610ab3565b906044356001600160401b03811161021157610463903690600401610ab3565b906064356001600160401b03811161021157610483903690600401610ab3565b906084356001600160401b038111610211576104a3903690600401610ab3565b92909360a4356001600160401b038111610211576104c5903690600401610ab3565b9690976001600160401b036101043516610104350361021157335f52600360205260ff60405f20541615610a9d5760043515610a8b576004355f52600160205260ff600660405f20015460801c16610a725760405161052381610b34565b6004358152610533368c84610b71565b6020820152610543368486610b71565b6040820152610553368688610b71565b606082015260c435608082015260e43560a08201526001600160401b03610104351660c08201526001600160401b03421660e082015260016101008201526004355f52600160205260405f208151815560208201518051906001600160401b03821161080e5781906105c86001850154610bb6565b601f8111610a22575b50602090601f83116001146109b4575f926109a9575b50508160011b915f199060031b1c19161760018201555b60408201518051906001600160401b03821161080e5781906106236002850154610bb6565b601f8111610959575b50602090601f83116001146108eb575f926108e0575b50508160011b915f199060031b1c19161760028201555b60608201518051906001600160401b03821161080e5761067c6003840154610bb6565b601f811161089c575b50602090601f831160011461082d5760069392915f9183610822575b50508160011b915f199060031b1c19161760038201555b6080830151600482015560a0830151600582015501906001600160401b0360c082015116908254916fffffffffffffffff000000000000000060e083015160401b169161010060ff60801b910151151560801b169270ffffffffffffffffffffffffffffffffff191617171790556002546801000000000000000081101561080e576001810160025561074a90610bee565b81549060031b90600435821b915f19901b1916179055604051996101008b526101008b019061077892610c37565b9089820360208b015261078a92610c37565b90878203604089015261079c92610c37565b9085820360608701526107ae92610c37565b9083820360808501526107c092610c37565b9060c43560a082015260e43560c0820152610104356001600160401b031660e08201528060043592037fe20a640d738dd5d812c51530075c367eab337c3b8838527c42c05b706a70961291a2005b634e487b7160e01b5f52604160045260245ffd5b015190508f806106a1565b90600384015f5260205f20915f5b601f1985168110610884575091839160019360069695601f1981161061086c575b505050811b0160038201556106b8565b01515f1960f88460031b161c191690558f808061085c565b9192602060018192868501518155019401920161083b565b600384015f5260205f20601f840160051c8101602085106108d9575b601f830160051c820181106108ce575050610685565b5f81556001016108b8565b50806108b8565b015190508e80610642565b9250600284015f5260205f20905f935b601f198416851061093e576001945083601f19811610610926575b505050811b016002820155610659565b01515f1960f88460031b161c191690558e8080610916565b818101518355602094850194600190930192909101906108fb565b909150600284015f5260205f20601f840160051c8101602085106109a2575b90849392915b601f830160051c8201811061099457505061062c565b5f815585945060010161097e565b5080610978565b015190508e806105e7565b9250600184015f5260205f20905f935b601f1984168510610a07576001945083601f198116106109ef575b505050811b0160018201556105fe565b01515f1960f88460031b161c191690558e80806109df565b818101518355602094850194600190930192909101906109c4565b909150600184015f5260205f20601f840160051c810160208510610a6b575b90849392915b601f830160051c82018110610a5d5750506105d1565b5f8155859450600101610a47565b5080610a41565b6024604051632afdd1bb60e21b81526004356004820152fd5b604051639698ad7560e01b8152600490fd5b63bea0631960e01b608090815233608452602490fd5b9181601f84011215610211578235916001600160401b038311610211576020838186019501011161021157565b600435906001600160a01b038216820361021157565b91908251928382525f5b848110610b20575050825f602080949584010152601f8019910116010190565b602081830181015184830182015201610b00565b61012081019081106001600160401b0382111761080e57604052565b90601f801991011681019081106001600160401b0382111761080e57604052565b9291926001600160401b03821161080e5760405191610b9a601f8201601f191660200184610b50565b829481845281830111610211578281602093845f960137010152565b90600182811c92168015610be4575b6020831014610bd057565b634e487b7160e01b5f52602260045260245ffd5b91607f1691610bc5565b600254811015610c235760025f527f405787fa12a823e0f2b7631cc41b3ba8828b3321ca811111fa75cd3aa3bb5ace01905f90565b634e487b7160e01b5f52603260045260245ffd5b908060209392818452848401375f828201840152601f01601f1916010190565b9060405191825f8254610c6981610bb6565b908184526020946001916001811690815f14610cd75750600114610c99575b505050610c9792500383610b50565b565b5f90815285812095935091905b818310610cbf575050610c9793508201015f8080610c88565b85548884018501529485019487945091830191610ca6565b92505050610c9794925060ff191682840152151560051b8201015f8080610c8856fea2646970667358221220026d3c92b4c3c8d07c71798fc8491fc4152eb69b47f64c82016567c18ab7a46364736f6c63430008180033","linkReferences":{}},"methodIdentifiers":{"emitters(address)":"f8617466","getReceipt(bytes32)":"fcecbb61","hasReceipt(bytes32)":"f4e98e0b","owner()":"8da5cb5b","publishReceipt(bytes32,string,string,string,string,string,bytes32,bytes32,uint64)":"113cdcb8","receiptCount()":"7f038f3c","receiptIdAt(uint256)":"d99639b0","setEmitter(address,bool)":"43f7aeda","transferOwnership(address)":"f2fde38b"},"id":10}