{"abi":[{"type":"constructor","inputs":[{"name":"initialOwner","type":"address","internalType":"address"},{"name":"chainCaip2_","type":"string","internalType":"string"}],"stateMutability":"nonpayable"},{"type":"function","name":"chainCaip2","inputs":[],"outputs":[{"name":"","type":"string","internalType":"string"}],"stateMutability":"view"},{"type":"function","name":"localDebtOf","inputs":[{"name":"agentId","type":"string","internalType":"string"}],"outputs":[{"name":"","type":"uint256","internalType":"uint256"}],"stateMutability":"view"},{"type":"function","name":"owner","inputs":[],"outputs":[{"name":"","type":"address","internalType":"address"}],"stateMutability":"view"},{"type":"function","name":"reportDraw","inputs":[{"name":"agentId","type":"string","internalType":"string"},{"name":"pool","type":"address","internalType":"address"},{"name":"amount","type":"uint256","internalType":"uint256"},{"name":"noteNonce","type":"bytes32","internalType":"bytes32"}],"outputs":[{"name":"newLocalDebt","type":"uint256","internalType":"uint256"}],"stateMutability":"nonpayable"},{"type":"function","name":"reportRepay","inputs":[{"name":"agentId","type":"string","internalType":"string"},{"name":"pool","type":"address","internalType":"address"},{"name":"amount","type":"uint256","internalType":"uint256"},{"name":"noteNonce","type":"bytes32","internalType":"bytes32"}],"outputs":[{"name":"newLocalDebt","type":"uint256","internalType":"uint256"}],"stateMutability":"nonpayable"},{"type":"function","name":"reporters","inputs":[{"name":"","type":"address","internalType":"address"}],"outputs":[{"name":"","type":"bool","internalType":"bool"}],"stateMutability":"view"},{"type":"function","name":"setChainCaip2","inputs":[{"name":"chainCaip2_","type":"string","internalType":"string"}],"outputs":[],"stateMutability":"nonpayable"},{"type":"function","name":"setReporter","inputs":[{"name":"reporter","type":"address","internalType":"address"},{"name":"allowed","type":"bool","internalType":"bool"}],"outputs":[],"stateMutability":"nonpayable"},{"type":"function","name":"transferOwnership","inputs":[{"name":"newOwner","type":"address","internalType":"address"}],"outputs":[],"stateMutability":"nonpayable"},{"type":"event","name":"ExposureChanged","inputs":[{"name":"agentId","type":"string","indexed":true,"internalType":"string"},{"name":"targetChain","type":"string","indexed":false,"internalType":"string"},{"name":"pool","type":"address","indexed":true,"internalType":"address"},{"name":"action","type":"uint8","indexed":false,"internalType":"enum Cred402ExposureReporter.ExposureAction"},{"name":"amount","type":"uint256","indexed":false,"internalType":"uint256"},{"name":"newLocalDebt","type":"uint256","indexed":false,"internalType":"uint256"},{"name":"noteNonce","type":"bytes32","indexed":true,"internalType":"bytes32"},{"name":"reportedAt","type":"uint64","indexed":false,"internalType":"uint64"}],"anonymous":false},{"type":"event","name":"OwnershipTransferred","inputs":[{"name":"previousOwner","type":"address","indexed":true,"internalType":"address"},{"name":"newOwner","type":"address","indexed":true,"internalType":"address"}],"anonymous":false},{"type":"event","name":"ReporterSet","inputs":[{"name":"reporter","type":"address","indexed":true,"internalType":"address"},{"name":"allowed","type":"bool","indexed":false,"internalType":"bool"}],"anonymous":false},{"type":"error","name":"DebtUnderflow","inputs":[{"name":"agentId","type":"string","internalType":"string"},{"name":"debt","type":"uint256","internalType":"uint256"},{"name":"amount","type":"uint256","internalType":"uint256"}]},{"type":"error","name":"NotOwner","inputs":[{"name":"caller","type":"address","internalType":"address"}]},{"type":"error","name":"NotReporter","inputs":[{"name":"caller","type":"address","internalType":"address"}]},{"type":"error","name":"ZeroOwner","inputs":[]}],"bytecode":{"object":"0x6080604052346200026b5762000c39803803806200001d816200026f565b9283398101906040818303126200026b5780516001600160a01b03811691908290036200026b576020818101516001600160401b03928382116200026b570192601f908582860112156200026b5784518481116200023057601f19956200008a828501881686016200026f565b978289528583830101116200026b5784905f5b838110620002565750505f9188010152801562000244575f80546001600160a01b031916821781557f8be0079c531659141344cd1fd0a4f28419497f9722a3daafe3b4186f6b6457e08180a3845192831162000230576003948554926001938481811c9116801562000225575b828210146200021157838111620001c9575b5080928511600114620001655750839450908392915f9462000159575b50501b915f1990841b1c19161790555b6040516109a39081620002968239f35b015192505f8062000139565b929484908116875f52845f20945f905b88838310620001ae575050501062000196575b505050811b01905562000149565b01515f1983861b60f8161c191690555f808062000188565b85870151885590960195948501948793509081019062000175565b875f52815f208480880160051c82019284891062000207575b0160051c019085905b828110620001fb5750506200011c565b5f8155018590620001eb565b92508192620001e2565b634e487b7160e01b5f52602260045260245ffd5b90607f16906200010a565b634e487b7160e01b5f52604160045260245ffd5b604051639905827b60e01b8152600490fd5b8181018301518a82018401528692016200009d565b5f80fd5b6040519190601f01601f191682016001600160401b03811183821017620002305760405256fe608060409080825260049081361015610016575f80fd5b5f3560e01c9081632cc1cd9e1461082c575080633af29147146107da5780635c9e65de1461066e5780636a4aef301461054957806372175fd6146103815780638da5cb5b1461035a578063b006f6e6146101b5578063e1bb51331461011b5763f2fde38b14610083575f80fd5b346101175760203660031901126101175761009c610866565b5f546001600160a01b038082169391923385900361010157169384156100f45750506001600160a01b03191682175f9081557f8be0079c531659141344cd1fd0a4f28419497f9722a3daafe3b4186f6b6457e09080a3005b51639905827b60e01b8152fd5b855163245aecd360e01b81523381850152602490fd5b5f80fd5b5034610117578160031936011261011757610134610866565b9060243591821515809303610117575f546001600160a01b0392908316330361019e5750916020917f49414e0a37c19781141fced7b2dc68c560d888c72174623b7bba993149d9064d931693845f5260018352805f2060ff1981541660ff841617905551908152a2005b60249085519063245aecd360e01b82523390820152fd5b5034610117576101c4366108e2565b929190959395335f526001926020976001895260ff875f20541615610344578651828282378981848101600281520301902054978389018099116103315750878751838382378a81858101600281520301902055818751928392833781015f81520390209185519160a083525f946003549061023f826108aa565b918260a087015260c0906001811690815f146102fc57506001146102a6575b50505f8a8501525086830152606082018790524267ffffffffffffffff1660808301526001600160a01b0316925f8051602061094e833981519152919081900390a451908152f35b60035f9081529397508b5f8051602061092e8339815191525b8486106102e8575050505090830160c001949050815f8051602061094e8339815191528461025e565b80548887018401529401938c9083016102bf565b60ff191660c08089019190915293151560051b870190930197508492505f8051602061094e833981519152915085905061025e565b601190634e487b7160e01b5f525260245ffd5b8651633fca655760e01b815233818a0152602490fd5b8234610117575f366003190112610117575f5490516001600160a01b039091168152602090f35b503461011757610390366108e2565b929190959395335f526001926020976001895260ff875f2054161561034457865182828237898184810160028152030190205497888411610505578389039889116103315750878751838382378a81858101600281520301902055818751928392833781015f81520390209185519160a083525f9460035490610412826108aa565b918260a087015260c0906001811690815f146104d0575060011461047a575b505060018a8501525086830152606082018790524267ffffffffffffffff1660808301526001600160a01b0316925f8051602061094e833981519152919081900390a451908152f35b60035f9081529397508b5f8051602061092e8339815191525b8486106104bc575050505090830160c001949050815f8051602061094e83398151915284610431565b80548887018401529401938c908301610493565b60ff191660c08089019190915293151560051b870190930197508492505f8051602061094e8339815191529150859050610431565b82848a6060956084958c51978896632062fbf560e01b8852870152816064870152868601375f84840186015260248401526044830152601f01601f19168101030190fd5b509034610117575f366003190112610117578051805f6003549061056c826108aa565b808452602092600190846001821691825f14610652575050600114610608575b5050601f801994859203011682019482861067ffffffffffffffff8711176105f557509084929183855280845281519182828601525f5b8381106105df5750505f84830186015250601f01168101030190f35b81810183015188820188015287955082016105c3565b604190634e487b7160e01b5f525260245ffd5b909392915060035f525f8051602061092e833981519152935f915b81831061063a575050828293945001015f8061058c565b85548784018501529485019486945091830191610623565b925093505060ff191682850152151560051b8301015f8061058c565b50346101175760209160206003193601126101175767ffffffffffffffff918035838111610117576106a3903690830161087c565b5f5490949193906001600160a01b031633036107c5575083116105f557506106cc6003546108aa565b601f8111610779575b505f92601f831160011461071157509181925f92610706575b50508160011b915f199060031b1c1916176003555f80f35b013590505f806106ee565b601f198316935f8051602061092e83398151915292915f905b8682106107615750508360019510610748575b505050811b01600355005b01355f19600384901b60f8161c191690555f808061073d565b8060018496829495870135815501950192019061072a565b5f8051602061092e833981519152601f840160051c810191602085106107bb575b601f0160051c01905b8181106107b057506106d5565b5f81556001016107a3565b909150819061079a565b5163245aecd360e01b81523381840152602490fd5b5090346101175760203660031901126101175781359167ffffffffffffffff83116101175761081060209391849236910161087c565b9190828451938492833781016002815203019020549051908152f35b8390346101175760203660031901126101175760209160ff906001600160a01b03610855610866565b165f52600184525f20541615158152f35b600435906001600160a01b038216820361011757565b9181601f840112156101175782359167ffffffffffffffff8311610117576020838186019501011161011757565b90600182811c921680156108d8575b60208310146108c457565b634e487b7160e01b5f52602260045260245ffd5b91607f16916108b9565b6080600319820112610117576004359067ffffffffffffffff82116101175761090d9160040161087c565b90916024356001600160a01b03811681036101175790604435906064359056fec2575a0e9e593c00f959f8c92f12db2869c3395a3b0502d05e2516446f71f85b1371e696e9fe517f77957d9bf046e191ff6696c56bb2d81f078aedf8323172c6a2646970667358221220ca5d0bf2d07776983bed199655628970e8b4650407ae21de83c2968d0ea4e89e64736f6c63430008180033","linkReferences":{}},"methodIdentifiers":{"chainCaip2()":"6a4aef30","localDebtOf(string)":"3af29147","owner()":"8da5cb5b","reportDraw(string,address,uint256,bytes32)":"b006f6e6","reportRepay(string,address,uint256,bytes32)":"72175fd6","reporters(address)":"2cc1cd9e","setChainCaip2(string)":"5c9e65de","setReporter(address,bool)":"e1bb5133","transferOwnership(address)":"f2fde38b"},"id":6}