{"abi":[{"type":"constructor","inputs":[{"name":"initialOwner","type":"address","internalType":"address"},{"name":"verifier_","type":"address","internalType":"contract ICasperSigVerifier"},{"name":"policyPublicKey_","type":"bytes32","internalType":"bytes32"},{"name":"chainCaip2_","type":"string","internalType":"string"}],"stateMutability":"nonpayable"},{"type":"function","name":"chainCaip2","inputs":[],"outputs":[{"name":"","type":"string","internalType":"string"}],"stateMutability":"view"},{"type":"function","name":"checkNote","inputs":[{"name":"note","type":"tuple","internalType":"struct Cred402CreditNoteVerifier.CreditAuthorizationNote","components":[{"name":"noteType","type":"string","internalType":"string"},{"name":"version","type":"string","internalType":"string"},{"name":"noteId","type":"string","internalType":"string"},{"name":"agentId","type":"string","internalType":"string"},{"name":"targetChain","type":"string","internalType":"string"},{"name":"targetPool","type":"address","internalType":"address"},{"name":"maxDraw","type":"string","internalType":"string"},{"name":"asset","type":"string","internalType":"string"},{"name":"creditScore","type":"uint32","internalType":"uint32"},{"name":"riskPolicyVersion","type":"uint32","internalType":"uint32"},{"name":"globalExposureAfterDraw","type":"string","internalType":"string"},{"name":"expiresAt","type":"uint64","internalType":"uint64"},{"name":"nonce","type":"bytes32","internalType":"bytes32"}]},{"name":"canonicalSigningBytes","type":"bytes","internalType":"bytes"},{"name":"commitment","type":"bytes32","internalType":"bytes32"},{"name":"signature","type":"bytes","internalType":"bytes"}],"outputs":[{"name":"ok","type":"bool","internalType":"bool"}],"stateMutability":"view"},{"type":"function","name":"consumeNote","inputs":[{"name":"note","type":"tuple","internalType":"struct Cred402CreditNoteVerifier.CreditAuthorizationNote","components":[{"name":"noteType","type":"string","internalType":"string"},{"name":"version","type":"string","internalType":"string"},{"name":"noteId","type":"string","internalType":"string"},{"name":"agentId","type":"string","internalType":"string"},{"name":"targetChain","type":"string","internalType":"string"},{"name":"targetPool","type":"address","internalType":"address"},{"name":"maxDraw","type":"string","internalType":"string"},{"name":"asset","type":"string","internalType":"string"},{"name":"creditScore","type":"uint32","internalType":"uint32"},{"name":"riskPolicyVersion","type":"uint32","internalType":"uint32"},{"name":"globalExposureAfterDraw","type":"string","internalType":"string"},{"name":"expiresAt","type":"uint64","internalType":"uint64"},{"name":"nonce","type":"bytes32","internalType":"bytes32"}]},{"name":"canonicalSigningBytes","type":"bytes","internalType":"bytes"},{"name":"commitment","type":"bytes32","internalType":"bytes32"},{"name":"signature","type":"bytes","internalType":"bytes"}],"outputs":[{"name":"","type":"bool","internalType":"bool"}],"stateMutability":"nonpayable"},{"type":"function","name":"consumedNonce","inputs":[{"name":"","type":"bytes32","internalType":"bytes32"}],"outputs":[{"name":"","type":"bool","internalType":"bool"}],"stateMutability":"view"},{"type":"function","name":"isConsumed","inputs":[{"name":"nonce","type":"bytes32","internalType":"bytes32"}],"outputs":[{"name":"","type":"bool","internalType":"bool"}],"stateMutability":"view"},{"type":"function","name":"owner","inputs":[],"outputs":[{"name":"","type":"address","internalType":"address"}],"stateMutability":"view"},{"type":"function","name":"policyPublicKey","inputs":[],"outputs":[{"name":"","type":"bytes32","internalType":"bytes32"}],"stateMutability":"view"},{"type":"function","name":"setChainCaip2","inputs":[{"name":"chainCaip2_","type":"string","internalType":"string"}],"outputs":[],"stateMutability":"nonpayable"},{"type":"function","name":"setPolicyPublicKey","inputs":[{"name":"policyPublicKey_","type":"bytes32","internalType":"bytes32"}],"outputs":[],"stateMutability":"nonpayable"},{"type":"function","name":"setVerifier","inputs":[{"name":"verifier_","type":"address","internalType":"contract ICasperSigVerifier"}],"outputs":[],"stateMutability":"nonpayable"},{"type":"function","name":"structuralCommitment","inputs":[{"name":"note","type":"tuple","internalType":"struct Cred402CreditNoteVerifier.CreditAuthorizationNote","components":[{"name":"noteType","type":"string","internalType":"string"},{"name":"version","type":"string","internalType":"string"},{"name":"noteId","type":"string","internalType":"string"},{"name":"agentId","type":"string","internalType":"string"},{"name":"targetChain","type":"string","internalType":"string"},{"name":"targetPool","type":"address","internalType":"address"},{"name":"maxDraw","type":"string","internalType":"string"},{"name":"asset","type":"string","internalType":"string"},{"name":"creditScore","type":"uint32","internalType":"uint32"},{"name":"riskPolicyVersion","type":"uint32","internalType":"uint32"},{"name":"globalExposureAfterDraw","type":"string","internalType":"string"},{"name":"expiresAt","type":"uint64","internalType":"uint64"},{"name":"nonce","type":"bytes32","internalType":"bytes32"}]}],"outputs":[{"name":"","type":"bytes32","internalType":"bytes32"}],"stateMutability":"pure"},{"type":"function","name":"transferOwnership","inputs":[{"name":"newOwner","type":"address","internalType":"address"}],"outputs":[],"stateMutability":"nonpayable"},{"type":"function","name":"verifier","inputs":[],"outputs":[{"name":"","type":"address","internalType":"contract ICasperSigVerifier"}],"stateMutability":"view"},{"type":"event","name":"ChainCaip2Updated","inputs":[{"name":"chainCaip2","type":"string","indexed":false,"internalType":"string"}],"anonymous":false},{"type":"event","name":"NoteConsumed","inputs":[{"name":"nonce","type":"bytes32","indexed":true,"internalType":"bytes32"},{"name":"agentId","type":"string","indexed":false,"internalType":"string"},{"name":"targetPool","type":"address","indexed":true,"internalType":"address"}],"anonymous":false},{"type":"event","name":"OwnershipTransferred","inputs":[{"name":"previousOwner","type":"address","indexed":true,"internalType":"address"},{"name":"newOwner","type":"address","indexed":true,"internalType":"address"}],"anonymous":false},{"type":"event","name":"PolicyKeyUpdated","inputs":[{"name":"policyPublicKey","type":"bytes32","indexed":false,"internalType":"bytes32"}],"anonymous":false},{"type":"event","name":"VerifierUpdated","inputs":[{"name":"verifier","type":"address","indexed":true,"internalType":"address"}],"anonymous":false},{"type":"error","name":"CanonicalBytesMismatch","inputs":[]},{"type":"error","name":"InvalidPolicySignature","inputs":[]},{"type":"error","name":"NonceAlreadyConsumed","inputs":[{"name":"nonce","type":"bytes32","internalType":"bytes32"}]},{"type":"error","name":"NotOwner","inputs":[{"name":"caller","type":"address","internalType":"address"}]},{"type":"error","name":"NoteExpired","inputs":[{"name":"expiresAt","type":"uint64","internalType":"uint64"},{"name":"nowTs","type":"uint256","internalType":"uint256"}]},{"type":"error","name":"WrongTargetChain","inputs":[]},{"type":"error","name":"WrongTargetPool","inputs":[{"name":"expected","type":"address","internalType":"address"},{"name":"got","type":"address","internalType":"address"}]},{"type":"error","name":"WrongType","inputs":[]},{"type":"error","name":"WrongVersion","inputs":[]},{"type":"error","name":"ZeroOwner","inputs":[]},{"type":"error","name":"ZeroVerifier","inputs":[]}],"bytecode":{"object":"0x604060808152346200034e57620012a790813803806200001f8162000352565b9384398201916080818403126200034e5780516001600160a01b0380821694909290918590036200034e57602091828201519384168094036200034e578482015193606083015160018060401b03938482116200034e570191601f918183850112156200034e578351948086116200031a57601f1994620000a68786018716890162000352565b96808852888801948982840101116200034e578489620000c7930162000378565b89156200033d575f80546001600160a01b03199081168c1782558a51909b90917f8be0079c531659141344cd1fd0a4f28419497f9722a3daafe3b4186f6b6457e08180a382156200032e57508160019a8b5416178a558760025585519081116200031a5760039081548b81811c911680156200030f575b89821014620002fb57858111620002b7575b50899a5f9a98999a50898683116001146200021f579282807fab3fecba635554bd8a85ce15ae00aaa068d0e856793c07c28b6642cf9687dd5196945f80516020620012878339815191529e948e975f9362000213575b501b915f1990841b1c19161790555b8851917fd24015cc99cc1700cafca3042840a1d8ac1e3964fd2e0e37ea29c654056ee3275f80a28152a1620001fd855196879581875251928380928801528787019062000378565b01168101030190a151610eeb90816200039c8239f35b8d015192505f620001a6565b9a92918781169b835f528b5f209c5f5b8181106200029e5750915f80516020620012878339815191529d8d969492827fab3fecba635554bd8a85ce15ae00aaa068d0e856793c07c28b6642cf9687dd519997951062000286575b5050811b019055620001b5565b8c01515f1983861b60f8161c191690555f8062000279565b828c01518f559d84019d8f9c50918d01918d016200022f565b825f52885f208680840160051c8201928b8510620002f1575b0160051c01905b818110620002e6575062000150565b5f81558c01620002d7565b92508192620002d0565b634e487b7160e01b5f52602260045260245ffd5b90607f16906200013e565b634e487b7160e01b5f52604160045260245ffd5b634a8bdce360e01b8152600490fd5b8851639905827b60e01b8152600490fd5b5f80fd5b6040519190601f01601f191682016001600160401b038111838210176200031a57604052565b5f5b8381106200038a5750505f910152565b81810151838201526020016200037a56fe6101a0604081815260049182361015610016575f80fd5b5f3560e01c9081632b7ac3f314610698575080635437988d1461061a5780635c9e65de1461043e5780636346e8321461029f5780636a4aef301461033757806377504dc6146102ca57806381c5de3c1461029f5780638da5cb5b14610278578063920a25021461024e578063cec8f19e146101ae578063d32674ee14610167578063ebd846a8146101495763f2fde38b146100af575f80fd5b34610145576020366003190112610145576001600160a01b0382358181169390849003610145575f549182169283330361012e5784156101215750506001600160a01b03191682175f9081557f8be0079c531659141344cd1fd0a4f28419497f9722a3daafe3b4186f6b6457e09080a3005b51639905827b60e01b8152fd5b60249250519063245aecd360e01b82523390820152fd5b5f80fd5b5034610145575f366003190112610145576020906002549051908152f35b503461014557600319916020368401126101455780359267ffffffffffffffff8411610145576101a0908436030112610145576020926101a79101610c22565b9051908152f35b5034610145576101cf6020926101c336610773565b938597959391936108a1565b5061018082013590815f528452825f20600160ff198254161790557f588f6050430b352989a06dda1d1fef6d45b45ac88f33703add01621862880c9761021860608401846107ff565b936001600160a01b039061022e9060a001610878565b16936102448651928392898452898401916107df565b0390a35160018152f35b50346101455760209061026f61026336610773565b949390939291926108a1565b90519015158152f35b5034610145575f366003190112610145575f5490516001600160a01b039091168152602090f35b50346101455760203660031901126101455781602092355f52825260ff815f20541690519015158152f35b5034610145576020366003190112610145575f54823592906001600160a01b03163303610321577fab3fecba635554bd8a85ce15ae00aaa068d0e856793c07c28b6642cf9687dd51602084848160025551908152a1005b602491519063245aecd360e01b82523390820152fd5b5034610145575f366003190112610145578051905f916003548161035a826106e9565b9485825260209586936001906001811690815f1461041d57506001146103d3575b505061038c92509492940384610751565b815192818492835281519182828501525f5b8381106103bd5750505f83830185015250601f01601f19168101030190f35b818101830151878201870152869450820161039e565b9093915060035f525f80516020610e96833981519152935f915b81831061040557508794505082010161038c8761037b565b855487840185015294850194869450918301916103ed565b91505061038c94925060ff191682840152151560051b82010185928761037b565b509034610145576020806003193601126101455767ffffffffffffffff9282358481116101455761047290369085016106bb565b5f5491959094916001600160a01b031633036106035784116105f05750600361049b81546106e9565b601f81116105a2575b505f601f851160011461051257917f5bcce82d8183e0a92c7df358c7d333834957a8a8e247c1aba5769efdddf32afb959185610502945f91610507575b505f1987831b1c1916600187901b1790555b519383859485528401916107df565b0390a1005b90508301355f6104e1565b601f19851690825f525f80516020610e96833981519152915f5b81811061058b5750917f5bcce82d8183e0a92c7df358c7d333834957a8a8e247c1aba5769efdddf32afb97939187610502969410610574575b5050600186811b0190556104f3565b8401355f1988841b60f8161c191690555f80610565565b91928660018192868c01358155019401920161052c565b815f525f80516020610e96833981519152601f860160051c8101918587106105e6575b601f0160051c01905b8181106105db57506104a4565b5f81556001016105ce565b90915081906105c5565b604190634e487b7160e01b5f525260245ffd5b50602491519063245aecd360e01b82523390820152fd5b5090346101455760203660031901126101455780356001600160a01b038181169391849003610145575f5416330361012e57821561068b57600180546001600160a01b03191684179055827fd24015cc99cc1700cafca3042840a1d8ac1e3964fd2e0e37ea29c654056ee3275f80a2005b51634a8bdce360e01b8152fd5b34610145575f366003190112610145576001546001600160a01b03168152602090f35b9181601f840112156101455782359167ffffffffffffffff8311610145576020838186019501011161014557565b90600182811c92168015610717575b602083101461070357565b634e487b7160e01b5f52602260045260245ffd5b91607f16916106f8565b6040810190811067ffffffffffffffff82111761073d57604052565b634e487b7160e01b5f52604160045260245ffd5b90601f8019910116810190811067ffffffffffffffff82111761073d57604052565b906003196080818401126101455760043567ffffffffffffffff91828211610145576101a0908286030112610145576004019260243582811161014557816107bd916004016106bb565b9390939260443592606435918211610145576107db916004016106bb565b9091565b908060209392818452848401375f828201840152601f01601f1916010190565b903590601e1981360301821215610145570180359067ffffffffffffffff82116101455760200191813603831361014557565b92919267ffffffffffffffff821161073d576040519161085c601f8201601f191660200184610751565b829481845281830111610145578281602093845f960137010152565b356001600160a01b03811681036101455790565b3567ffffffffffffffff811681036101455790565b9492939190916108bb6108b487806107ff565b3691610832565b938451602080960120957f48030767583bd9a4a92844021b7a8814d1b447aeed5a3833a638a80d012f7db86040977f43726564343032437265646974417574686f72697a6174696f6e4e6f74650000888a5161091681610721565b601e8152015203610c00576109306108b4878a018a6107ff565b8681519101207fc89efdaa54c0f20c7adf612882df0950f5a951637e0307cdcb4c672f298b8bc688519161096383610721565b603160f81b8960019460018152015203610bef576109876108b460808b018b6107ff565b80519088012088516003549192815f61099f856106e9565b928383528c8301958d6001821691825f14610bd1575050600114610b89575b506109cb92500382610751565b51902003610b785760a08801906109e182610878565b6001600160a01b0392903390841603610b50575067ffffffffffffffff6101608a0181610a0d8261088c565b164211610b2857505061018089013598895f526004998a895260ff8a5f205416610b125750610a3b90610c22565b03610b02578315610b02579087610a9487959493600154169360025493610a828b51998a988997889763334a68bf60e11b89528801526060602488015260648701916107df565b848103600319016044860152916107df565b03915afa918215610af8575f92610ac1575b505015610ab4575050600190565b51634c82eb0160e01b8152fd5b90809250813d8311610af1575b610ad88183610751565b8101031261014557518015158103610145575f80610aa6565b503d610ace565b83513d5f823e3d90fd5b86516319967faf60e11b81528890fd5b8a6024918b5191635fd8aaa760e11b8352820152fd5b604491610b358b9261088c565b91516368a8d86560e01b815291166004820152426024820152fd5b8883610b5d604493610878565b915163173c59a360e31b815233600482015291166024820152fd5b865163a3f6fe7d60e01b8152600490fd5b8c915060035f525f80516020610e96833981519152905f915b858310610bb95750506109cb93508201015f6109be565b80548388018501528694508e93909201918101610ba2565b60ff191688526109cb95151560051b85010192505f91506109be9050565b8751635e58c25560e11b8152600490fd5b865163eab19d6b60e01b8152600490fd5b3563ffffffff811681036101455790565b610160819052610c3290806107ff565b9061012052610160516020016101605190610c4c916107ff565b610140526101805261016051610c669060408101906107ff565b90610160516060016101605190610c7c916107ff565b90610160516080016101605190610c92916107ff565b91906101605160a001610ca490610878565b926101605160c0016101605190610cba916107ff565b9390956101605160e0016101605190610cd2916107ff565b9890996101605161010001610ce690610c11565b9b6101605161012001610cf890610c11565b60a05261016051610d0e906101408101906107ff565b60805260e0526101605161016001610d259061088c565b6101005260405160c05260c0516020016101a0905260c0516101c0016101205191610d4f926107df565b601f1960c05182030160c0516040015261014051906101805191610d72926107df565b90601f1960c05183030160c05160600152610d8c926107df565b90601f1960c05183030160c05160800152610da6926107df565b90601f1960c05183030160c05160a00152610dc0926107df565b91600160a01b600190031660c05160c00152601f1960c05183030160c05160e00152610deb926107df565b90601f1960c05183030160c0516101000152610e06926107df565b9063ffffffff80911660c051610120015260a0511660c0516101400152601f1960c05182030160c05161016001526080519060e05191610e45926107df565b6101005167ffffffffffffffff1660c051610180015261016051610180013560c0516101a0015260c0519003601f19810160c0515260c05190610e8791610751565b60c0515160c051602001209056fec2575a0e9e593c00f959f8c92f12db2869c3395a3b0502d05e2516446f71f85ba264697066735822122090b6b9167b267b32925c2e7c93913d3caeecdfe68c76a47697f3346241e1d69164736f6c634300081800335bcce82d8183e0a92c7df358c7d333834957a8a8e247c1aba5769efdddf32afb","linkReferences":{}},"methodIdentifiers":{"chainCaip2()":"6a4aef30","checkNote((string,string,string,string,string,address,string,string,uint32,uint32,string,uint64,bytes32),bytes,bytes32,bytes)":"920a2502","consumeNote((string,string,string,string,string,address,string,string,uint32,uint32,string,uint64,bytes32),bytes,bytes32,bytes)":"cec8f19e","consumedNonce(bytes32)":"81c5de3c","isConsumed(bytes32)":"6346e832","owner()":"8da5cb5b","policyPublicKey()":"ebd846a8","setChainCaip2(string)":"5c9e65de","setPolicyPublicKey(bytes32)":"77504dc6","setVerifier(address)":"5437988d","structuralCommitment((string,string,string,string,string,address,string,string,uint32,uint32,string,uint64,bytes32))":"d32674ee","transferOwnership(address)":"f2fde38b","verifier()":"2b7ac3f3"},"id":1}