{"abi":[{"type":"constructor","inputs":[{"name":"initialOwner","type":"address","internalType":"address"}],"stateMutability":"nonpayable"},{"type":"function","name":"emitters","inputs":[{"name":"","type":"address","internalType":"address"}],"outputs":[{"name":"","type":"bool","internalType":"bool"}],"stateMutability":"view"},{"type":"function","name":"fiatReceiptCount","inputs":[],"outputs":[{"name":"","type":"uint256","internalType":"uint256"}],"stateMutability":"view"},{"type":"function","name":"getFiatReceipt","inputs":[{"name":"receiptId","type":"bytes32","internalType":"bytes32"}],"outputs":[{"name":"","type":"tuple","internalType":"struct Cred402RealFiMirror.FiatReceiptCommitment","components":[{"name":"receiptId","type":"bytes32","internalType":"bytes32"},{"name":"provider","type":"string","internalType":"string"},{"name":"sellerAgentId","type":"string","internalType":"string"},{"name":"operatorId","type":"string","internalType":"string"},{"name":"currency","type":"string","internalType":"string"},{"name":"serviceType","type":"string","internalType":"string"},{"name":"providerReceiptHash","type":"bytes32","internalType":"bytes32"},{"name":"status","type":"uint8","internalType":"uint8"},{"name":"recordedAt","type":"uint64","internalType":"uint64"},{"name":"exists","type":"bool","internalType":"bool"}]}],"stateMutability":"view"},{"type":"function","name":"getOperatorVerification","inputs":[{"name":"operatorId","type":"string","internalType":"string"}],"outputs":[{"name":"","type":"tuple","internalType":"struct Cred402RealFiMirror.OperatorCommitment","components":[{"name":"operatorId","type":"string","internalType":"string"},{"name":"provider","type":"string","internalType":"string"},{"name":"verificationLevel","type":"uint8","internalType":"uint8"},{"name":"jurisdiction","type":"string","internalType":"string"},{"name":"status","type":"uint8","internalType":"uint8"},{"name":"attestationHash","type":"bytes32","internalType":"bytes32"},{"name":"expiresAt","type":"uint64","internalType":"uint64"},{"name":"exists","type":"bool","internalType":"bool"}]}],"stateMutability":"view"},{"type":"function","name":"hasFiatReceipt","inputs":[{"name":"receiptId","type":"bytes32","internalType":"bytes32"}],"outputs":[{"name":"","type":"bool","internalType":"bool"}],"stateMutability":"view"},{"type":"function","name":"isOperatorVerified","inputs":[{"name":"operatorId","type":"string","internalType":"string"}],"outputs":[{"name":"","type":"bool","internalType":"bool"}],"stateMutability":"view"},{"type":"function","name":"owner","inputs":[],"outputs":[{"name":"","type":"address","internalType":"address"}],"stateMutability":"view"},{"type":"function","name":"publishFiatReceipt","inputs":[{"name":"receiptId","type":"bytes32","internalType":"bytes32"},{"name":"provider","type":"string","internalType":"string"},{"name":"sellerAgentId","type":"string","internalType":"string"},{"name":"operatorId","type":"string","internalType":"string"},{"name":"currency","type":"string","internalType":"string"},{"name":"serviceType","type":"string","internalType":"string"},{"name":"providerReceiptHash","type":"bytes32","internalType":"bytes32"},{"name":"status","type":"uint8","internalType":"uint8"}],"outputs":[],"stateMutability":"nonpayable"},{"type":"function","name":"publishOperatorVerification","inputs":[{"name":"operatorId","type":"string","internalType":"string"},{"name":"provider","type":"string","internalType":"string"},{"name":"verificationLevel","type":"uint8","internalType":"uint8"},{"name":"jurisdiction","type":"string","internalType":"string"},{"name":"status","type":"uint8","internalType":"uint8"},{"name":"attestationHash","type":"bytes32","internalType":"bytes32"},{"name":"expiresAt","type":"uint64","internalType":"uint64"}],"outputs":[],"stateMutability":"nonpayable"},{"type":"function","name":"setEmitter","inputs":[{"name":"emitter","type":"address","internalType":"address"},{"name":"allowed","type":"bool","internalType":"bool"}],"outputs":[],"stateMutability":"nonpayable"},{"type":"function","name":"transferOwnership","inputs":[{"name":"newOwner","type":"address","internalType":"address"}],"outputs":[],"stateMutability":"nonpayable"},{"type":"event","name":"EmitterSet","inputs":[{"name":"emitter","type":"address","indexed":true,"internalType":"address"},{"name":"allowed","type":"bool","indexed":false,"internalType":"bool"}],"anonymous":false},{"type":"event","name":"FiatReceiptMirrored","inputs":[{"name":"receiptId","type":"bytes32","indexed":true,"internalType":"bytes32"},{"name":"provider","type":"string","indexed":false,"internalType":"string"},{"name":"sellerAgentId","type":"string","indexed":false,"internalType":"string"},{"name":"operatorId","type":"string","indexed":false,"internalType":"string"},{"name":"currency","type":"string","indexed":false,"internalType":"string"},{"name":"serviceType","type":"string","indexed":false,"internalType":"string"},{"name":"providerReceiptHash","type":"bytes32","indexed":false,"internalType":"bytes32"},{"name":"status","type":"uint8","indexed":false,"internalType":"uint8"}],"anonymous":false},{"type":"event","name":"OperatorVerificationMirrored","inputs":[{"name":"operatorId","type":"string","indexed":true,"internalType":"string"},{"name":"provider","type":"string","indexed":false,"internalType":"string"},{"name":"verificationLevel","type":"uint8","indexed":false,"internalType":"uint8"},{"name":"jurisdiction","type":"string","indexed":false,"internalType":"string"},{"name":"status","type":"uint8","indexed":false,"internalType":"uint8"},{"name":"attestationHash","type":"bytes32","indexed":false,"internalType":"bytes32"},{"name":"expiresAt","type":"uint64","indexed":false,"internalType":"uint64"}],"anonymous":false},{"type":"event","name":"OwnershipTransferred","inputs":[{"name":"previousOwner","type":"address","indexed":true,"internalType":"address"},{"name":"newOwner","type":"address","indexed":true,"internalType":"address"}],"anonymous":false},{"type":"error","name":"NotEmitter","inputs":[{"name":"caller","type":"address","internalType":"address"}]},{"type":"error","name":"NotOwner","inputs":[{"name":"caller","type":"address","internalType":"address"}]},{"type":"error","name":"ReceiptExists","inputs":[{"name":"receiptId","type":"bytes32","internalType":"bytes32"}]},{"type":"error","name":"ZeroOwner","inputs":[]},{"type":"error","name":"ZeroReceiptId","inputs":[]}],"bytecode":{"object":"0x6080346100f357601f61185638819003918201601f19168301916001600160401b038311848410176100f7578084926020946040528339810103126100f357516001600160a01b038116908190036100f35780156100e1575f80546001600160a01b031916821781556040517fc60435d9cd8ec0707bb194bc57f43f8100254a04fbfa4efa31fdd0687cb1ad50916020919084907f8be0079c531659141344cd1fd0a4f28419497f9722a3daafe3b4186f6b6457e08180a3835f526004825260405f20600160ff1982541617905560018152a260405161174a908161010c8239f35b604051639905827b60e01b8152600490fd5b5f80fd5b634e487b7160e01b5f52604160045260245ffdfe60806040526004361015610011575f80fd5b5f3560e01c8063176296c014610f3f5780631fa5d3ab14610f0a57806322618d9e14610eed57806343f7aeda14610e6a57806361f03c3f14610c9a578063775d821814610c0a5780638da5cb5b14610be3578063a0a7882314610a58578063c60f8c411461016b578063f2fde38b146100d35763f861746614610092575f80fd5b346100cf5760203660031901126100cf576001600160a01b036100b3611528565b165f526004602052602060ff60405f2054166040519015158152f35b5f80fd5b346100cf5760203660031901126100cf576100ec611528565b5f54906001600160a01b0380831691338390036101535716918215610141576001600160a01b03191682175f9081557f8be0079c531659141344cd1fd0a4f28419497f9722a3daafe3b4186f6b6457e09080a3005b604051639905827b60e01b8152600490fd5b60405163245aecd360e01b8152336004820152602490fd5b346100cf576101003660031901126100cf576024356001600160401b0381116100cf5761019c9036906004016114fb565b6044356001600160401b0381116100cf576101bb9036906004016114fb565b906064356001600160401b0381116100cf576101db9036906004016114fb565b906084356001600160401b0381116100cf576101fb9036906004016114fb565b91909260a4356001600160401b0381116100cf5761021d9036906004016114fb565b95909660e4359960ff8b168b036100cf57335f52600460205260ff60405f20541615610a405760043515610a2e576004355f52600160205260ff600760405f20015460481c16610a155760405161027381611598565b6004358152610283368c846115d5565b602082019081526102953685876115d5565b60408301526102a53687896115d5565b60608301526102b536898b6115d5565b60808301526102c5368b8d6115d5565b60a083015260c43560c083015260ff8d1660e08301526001600160401b03421661010083015260016101208301526004355f52600160205260405f209082518255518051906001600160401b03821161061f578190610327600185015461161a565b601f81116109c5575b50602090601f8311600114610957575f9261094c575b50508160011b915f199060031b1c19161760018201555b60408201518051906001600160401b03821161061f578190610382600285015461161a565b601f81116108fc575b50602090601f831160011461088e575f92610883575b50508160011b915f199060031b1c19161760028201555b60608201518051906001600160401b03821161061f5781906103dd600385015461161a565b601f8111610833575b50602090601f83116001146107c5575f926107ba575b50508160011b915f199060031b1c19161760038201555b60808201518051906001600160401b03821161061f578190610438600485015461161a565b601f811161076a575b50602090601f83116001146106fc575f926106f1575b50508160011b915f199060031b1c19161760048201555b60a08201518051906001600160401b03821161061f57610491600584015461161a565b601f81116106ad575b50602090601f831160011461063e5760079392915f9183610633575b50508160011b915f199060031b1c19161760058201555b60c08301516006820155019060ff60e0820151169082549169ff00000000000000000061012068ffffffffffffffff0061010085015160081b16930151151560481b169269ffffffffffffffffffff191617171790556002546801000000000000000081101561061f57600181018060025581101561060b5760025f52600435907f405787fa12a823e0f2b7631cc41b3ba8828b3321ca811111fa75cd3aa3bb5ace01556040519960e08b5260e08b019061058792611652565b9089820360208b015261059992611652565b9087820360408901526105ab92611652565b9085820360608701526105bd92611652565b9083820360808501526105cf92611652565b9160c43560a083015260ff1660c08201528060043592037f203d0c2aa9a462ff7755b761466393373aa5a41cf5eb49e1152d0e588691fc0691a2005b634e487b7160e01b5f52603260045260245ffd5b634e487b7160e01b5f52604160045260245ffd5b015190505f806104b6565b90600584015f5260205f20915f5b601f1985168110610695575091839160019360079695601f1981161061067d575b505050811b0160058201556104cd565b01515f1960f88460031b161c191690555f808061066d565b9192602060018192868501518155019401920161064c565b600584015f5260205f20601f840160051c8101602085106106ea575b601f830160051c820181106106df57505061049a565b5f81556001016106c9565b50806106c9565b015190508f80610457565b9250600484015f5260205f20905f935b601f198416851061074f576001945083601f19811610610737575b505050811b01600482015561046e565b01515f1960f88460031b161c191690558f8080610727565b8181015183556020948501946001909301929091019061070c565b909150600484015f5260205f20601f840160051c8101602085106107b3575b90849392915b601f830160051c820181106107a5575050610441565b5f815585945060010161078f565b5080610789565b015190508f806103fc565b9250600384015f5260205f20905f935b601f1984168510610818576001945083601f19811610610800575b505050811b016003820155610413565b01515f1960f88460031b161c191690558f80806107f0565b818101518355602094850194600190930192909101906107d5565b909150600384015f5260205f20601f840160051c81016020851061087c575b90849392915b601f830160051c8201811061086e5750506103e6565b5f8155859450600101610858565b5080610852565b015190508f806103a1565b9250600284015f5260205f20905f935b601f19841685106108e1576001945083601f198116106108c9575b505050811b0160028201556103b8565b01515f1960f88460031b161c191690558f80806108b9565b8181015183556020948501946001909301929091019061089e565b909150600284015f5260205f20601f840160051c810160208510610945575b90849392915b601f830160051c8201811061093757505061038b565b5f8155859450600101610921565b508061091b565b015190508f80610346565b9250600184015f5260205f20905f935b601f19841685106109aa576001945083601f19811610610992575b505050811b01600182015561035d565b01515f1960f88460031b161c191690558f8080610982565b81810151835560209485019460019093019290910190610967565b909150600184015f5260205f20601f840160051c810160208510610a0e575b90849392915b601f830160051c82018110610a00575050610330565b5f81558594506001016109ea565b50806109e4565b6024604051632afdd1bb60e21b81526004356004820152fd5b604051639698ad7560e01b8152600490fd5b60405163bea0631960e01b8152336004820152602490fd5b346100cf576020806003193601126100cf576001600160401b03906004358281116100cf57610a8b9036906004016114fb565b60405193918390610a9b8661157c565b6060958681528683820152604081015f90528680820152608081015f905260a081015f905260c081015f905260e0015f9052826040519384928337810160038152030190209160405192610aee8461157c565b610af781611672565b8452610b0560018201611672565b92828501938452600282015460ff16916040860192835260038101610b2990611672565b90878701918252600481015460ff16956080880196875260058201549160a08901928352600601549460c0890193858716855260e08a019660401c60ff16151587526040519a8b9a898c5251610100809a8d01526101208c01610b8b9161153e565b9351601f198c8603810160408e015294610ba49161153e565b925160ff16908b015251918982030160808a0152610bc19161153e565b955160ff1660a08801525160c0870152511660e0850152511515908301520390f35b346100cf575f3660031901126100cf575f546040516001600160a01b039091168152602090f35b346100cf5760203660031901126100cf576004356001600160401b038082116100cf576020610c3e819336906004016114fb565b9190826040519384928337810160038152030190209060068201549060ff8260401c169283610c88575b5082610c7b575b50506040519015158152f35b4291161190508280610c6f565b6004015460ff16600114925084610c68565b346100cf5760203660031901126100cf575f610120604051610cbb81611598565b828152606060208201526060604082015260608082015260606080820152606060a08201528260c08201528260e08201528261010082015201526004355f52600160205260405f2060ff600760405192610d1484611598565b80548452610d2460018201611672565b6020850152610d3560028201611672565b6040850152610d4660038201611672565b6060850152610d5760048201611672565b6080850152610d6860058201611672565b60a0850152600681015460c0850152015481811660e08401526001600160401b038160081c1661010084015260481c161515610120820152604051809160208252805160208301526020810151610120610e32610dd36101409384604088015261016087019061153e565b610e1d610e09610df5604088015193601f1994858b83030160608c015261153e565b6060880151848a83030160808b015261153e565b6080870151838983030160a08a015261153e565b9060a0860151908783030160c088015261153e565b9260c081015160e086015260ff60e0820151166101008601526001600160401b03610100820151168286015201511515908301520390f35b346100cf5760403660031901126100cf57610e83611528565b602435908115158092036100cf575f546001600160a01b03919082163303610153577fc60435d9cd8ec0707bb194bc57f43f8100254a04fbfa4efa31fdd0687cb1ad50916020911692835f526004825260405f2060ff1981541660ff8316179055604051908152a2005b346100cf575f3660031901126100cf576020600254604051908152f35b346100cf5760203660031901126100cf576004355f526001602052602060ff600760405f20015460481c166040519015158152f35b346100cf5760e03660031901126100cf576004356001600160401b0381116100cf57610f6f9036906004016114fb565b6024356001600160401b0381116100cf57610f8e9036906004016114fb565b6044359260ff841684036100cf576064356001600160401b0381116100cf57610fbb9036906004016114fb565b6084959195359260ff841684036100cf5760c435976001600160401b03891689036100cf57335f52600460205260ff60405f205416156114e5576040516110018161157c565b61100c3684846115d5565b815261101936888a6115d5565b602082015260ff8516604082015261103236858b6115d5565b606082015260ff8616608082015260a43560a08201526001600160401b038a1660c0820152600160e082015260405183838237602081858101600381520301902081518051906001600160401b03821161061f578190611092845461161a565b601f8111611498575b50602090601f8311600114611434575f92611429575b50508160011b915f199060031b1c19161781555b60208201518051906001600160401b03821161061f5781906110ea600185015461161a565b601f81116113d9575b50602090601f831160011461136e575f92611363575b50508160011b915f199060031b1c19161760018201555b6002810160ff60408401511660ff1982541617905560608201518051906001600160401b03821161061f57611158600384015461161a565b601f811161131f575b50602090601f831160011461127b579360067fda325f4ec22b3fae4a66312cd9e96a9bdefb95ac8f556d1ce30892e78a4973379d9e98948460ff999561125699956001600160401b039d995f92611270575b50508160011b915f199060031b1c19161760038201555b60048101896080850151168a1982541617905560a0830151600582015501908960c08201511668ff000000000000000060e08454930151151560401b169168ffffffffffffffffff19161717905581604051928392833781015f81520390209a846112426040519b8c9b60c08d5260c08d0191611652565b931660208a015288830360408a0152611652565b9316606085015260a43560808501521660a08301520390a2005b015190505f806111b3565b90600384015f5260205f20915f5b601f198516811061130757507fda325f4ec22b3fae4a66312cd9e96a9bdefb95ac8f556d1ce30892e78a4973379d9e989460018561125699956001600160401b039d999560069560ff9d99601f198116106112ef575b505050811b0160038201556111ca565b01515f1960f88460031b161c191690555f80806112df565b91926020600181928685015181550194019201611289565b600384015f5260205f20601f840160051c81016020851061135c575b601f830160051c82018110611351575050611161565b5f815560010161133b565b508061133b565b015190508d80611109565b600185015f908152602081209350601f198516905b8181106113c157509084600195949392106113a9575b505050811b016001820155611120565b01515f1960f88460031b161c191690558d8080611399565b92936020600181928786015181550195019301611383565b909150600184015f5260205f20601f840160051c810160208510611422575b90849392915b601f830160051c820181106114145750506110f3565b5f81558594506001016113fe565b50806113f8565b015190508d806110b1565b5f858152602081209350601f198516905b8181106114805750908460019594939210611468575b505050811b0181556110c5565b01515f1960f88460031b161c191690558d808061145b565b92936020600181928786015181550195019301611445565b909150835f5260205f20601f840160051c8101602085106114de575b90849392915b601f830160051c820181106114d057505061109b565b5f81558594506001016114ba565b50806114b4565b63bea0631960e01b608090815233608452602490fd5b9181601f840112156100cf578235916001600160401b0383116100cf57602083818601950101116100cf57565b600435906001600160a01b03821682036100cf57565b91908251928382525f5b848110611568575050825f602080949584010152601f8019910116010190565b602081830181015184830182015201611548565b61010081019081106001600160401b0382111761061f57604052565b61014081019081106001600160401b0382111761061f57604052565b90601f801991011681019081106001600160401b0382111761061f57604052565b9291926001600160401b03821161061f57604051916115fe601f8201601f1916602001846115b4565b8294818452818301116100cf578281602093845f960137010152565b90600182811c92168015611648575b602083101461163457565b634e487b7160e01b5f52602260045260245ffd5b91607f1691611629565b908060209392818452848401375f828201840152601f01601f1916010190565b9060405191825f82546116848161161a565b908184526020946001916001811690815f146116f257506001146116b4575b5050506116b2925003836115b4565b565b5f90815285812095935091905b8183106116da5750506116b293508201015f80806116a3565b855488840185015294850194879450918301916116c1565b925050506116b294925060ff191682840152151560051b8201015f80806116a356fea26469706673582212205286bbd3f4109a3d68bce2ae6d11ca03b344dc4a1b29104730c50c1cab3b1bb864736f6c63430008180033","linkReferences":{}},"methodIdentifiers":{"emitters(address)":"f8617466","fiatReceiptCount()":"22618d9e","getFiatReceipt(bytes32)":"61f03c3f","getOperatorVerification(string)":"a0a78823","hasFiatReceipt(bytes32)":"1fa5d3ab","isOperatorVerified(string)":"775d8218","owner()":"8da5cb5b","publishFiatReceipt(bytes32,string,string,string,string,string,bytes32,uint8)":"c60f8c41","publishOperatorVerification(string,string,uint8,string,uint8,bytes32,uint64)":"176296c0","setEmitter(address,bool)":"43f7aeda","transferOwnership(address)":"f2fde38b"},"id":8}