{"abi":[{"type":"constructor","inputs":[{"name":"initialOwner","type":"address","internalType":"address"},{"name":"usdc_","type":"address","internalType":"contract IERC20"},{"name":"noteVerifier_","type":"address","internalType":"contract Cred402CreditNoteVerifier"},{"name":"exposureReporter_","type":"address","internalType":"contract Cred402ExposureReporter"},{"name":"pauseGuard_","type":"address","internalType":"contract Cred402EmergencyPause"}],"stateMutability":"nonpayable"},{"type":"function","name":"availableLiquidity","inputs":[],"outputs":[{"name":"","type":"uint256","internalType":"uint256"}],"stateMutability":"view"},{"type":"function","name":"debtOf","inputs":[{"name":"agentId","type":"string","internalType":"string"}],"outputs":[{"name":"","type":"uint256","internalType":"uint256"}],"stateMutability":"view"},{"type":"function","name":"deposit","inputs":[{"name":"amount","type":"uint256","internalType":"uint256"}],"outputs":[],"stateMutability":"nonpayable"},{"type":"function","name":"draw","inputs":[{"name":"note","type":"tuple","internalType":"struct Cred402CreditNoteVerifier.CreditAuthorizationNote","components":[{"name":"noteType","type":"string","internalType":"string"},{"name":"version","type":"string","internalType":"string"},{"name":"noteId","type":"string","internalType":"string"},{"name":"agentId","type":"string","internalType":"string"},{"name":"targetChain","type":"string","internalType":"string"},{"name":"targetPool","type":"address","internalType":"address"},{"name":"maxDraw","type":"string","internalType":"string"},{"name":"asset","type":"string","internalType":"string"},{"name":"creditScore","type":"uint32","internalType":"uint32"},{"name":"riskPolicyVersion","type":"uint32","internalType":"uint32"},{"name":"globalExposureAfterDraw","type":"string","internalType":"string"},{"name":"expiresAt","type":"uint64","internalType":"uint64"},{"name":"nonce","type":"bytes32","internalType":"bytes32"}]},{"name":"canonicalSigningBytes","type":"bytes","internalType":"bytes"},{"name":"commitment","type":"bytes32","internalType":"bytes32"},{"name":"signature","type":"bytes","internalType":"bytes"},{"name":"borrower","type":"address","internalType":"address"},{"name":"amount","type":"uint256","internalType":"uint256"}],"outputs":[{"name":"newAgentDebt","type":"uint256","internalType":"uint256"}],"stateMutability":"nonpayable"},{"type":"function","name":"exposureReporter","inputs":[],"outputs":[{"name":"","type":"address","internalType":"contract Cred402ExposureReporter"}],"stateMutability":"view"},{"type":"function","name":"liquidityOf","inputs":[{"name":"","type":"address","internalType":"address"}],"outputs":[{"name":"","type":"uint256","internalType":"uint256"}],"stateMutability":"view"},{"type":"function","name":"noteVerifier","inputs":[],"outputs":[{"name":"","type":"address","internalType":"contract Cred402CreditNoteVerifier"}],"stateMutability":"view"},{"type":"function","name":"owner","inputs":[],"outputs":[{"name":"","type":"address","internalType":"address"}],"stateMutability":"view"},{"type":"function","name":"pauseGuard","inputs":[],"outputs":[{"name":"","type":"address","internalType":"contract Cred402EmergencyPause"}],"stateMutability":"view"},{"type":"function","name":"repay","inputs":[{"name":"agentId","type":"string","internalType":"string"},{"name":"amount","type":"uint256","internalType":"uint256"},{"name":"noteNonce","type":"bytes32","internalType":"bytes32"}],"outputs":[{"name":"newAgentDebt","type":"uint256","internalType":"uint256"}],"stateMutability":"nonpayable"},{"type":"function","name":"totalLiquidity","inputs":[],"outputs":[{"name":"","type":"uint256","internalType":"uint256"}],"stateMutability":"view"},{"type":"function","name":"totalOutstanding","inputs":[],"outputs":[{"name":"","type":"uint256","internalType":"uint256"}],"stateMutability":"view"},{"type":"function","name":"transferOwnership","inputs":[{"name":"newOwner","type":"address","internalType":"address"}],"outputs":[],"stateMutability":"nonpayable"},{"type":"function","name":"usdc","inputs":[],"outputs":[{"name":"","type":"address","internalType":"contract IERC20"}],"stateMutability":"view"},{"type":"function","name":"withdraw","inputs":[{"name":"amount","type":"uint256","internalType":"uint256"}],"outputs":[],"stateMutability":"nonpayable"},{"type":"event","name":"CreditDrawn","inputs":[{"name":"agentId","type":"string","indexed":true,"internalType":"string"},{"name":"borrower","type":"address","indexed":true,"internalType":"address"},{"name":"amount","type":"uint256","indexed":false,"internalType":"uint256"},{"name":"noteNonce","type":"bytes32","indexed":true,"internalType":"bytes32"},{"name":"newAgentDebt","type":"uint256","indexed":false,"internalType":"uint256"}],"anonymous":false},{"type":"event","name":"CreditRepaid","inputs":[{"name":"agentId","type":"string","indexed":true,"internalType":"string"},{"name":"payer","type":"address","indexed":true,"internalType":"address"},{"name":"amount","type":"uint256","indexed":false,"internalType":"uint256"},{"name":"newAgentDebt","type":"uint256","indexed":false,"internalType":"uint256"}],"anonymous":false},{"type":"event","name":"LiquidityDeposited","inputs":[{"name":"provider","type":"address","indexed":true,"internalType":"address"},{"name":"amount","type":"uint256","indexed":false,"internalType":"uint256"},{"name":"newTotalLiquidity","type":"uint256","indexed":false,"internalType":"uint256"}],"anonymous":false},{"type":"event","name":"LiquidityWithdrawn","inputs":[{"name":"provider","type":"address","indexed":true,"internalType":"address"},{"name":"amount","type":"uint256","indexed":false,"internalType":"uint256"},{"name":"newTotalLiquidity","type":"uint256","indexed":false,"internalType":"uint256"}],"anonymous":false},{"type":"event","name":"OwnershipTransferred","inputs":[{"name":"previousOwner","type":"address","indexed":true,"internalType":"address"},{"name":"newOwner","type":"address","indexed":true,"internalType":"address"}],"anonymous":false},{"type":"error","name":"AmountZero","inputs":[]},{"type":"error","name":"BorrowerZero","inputs":[]},{"type":"error","name":"ExceedsMaxDraw","inputs":[{"name":"amount","type":"uint256","internalType":"uint256"},{"name":"maxDraw","type":"uint256","internalType":"uint256"}]},{"type":"error","name":"InsufficientLiquidity","inputs":[{"name":"available","type":"uint256","internalType":"uint256"},{"name":"requested","type":"uint256","internalType":"uint256"}]},{"type":"error","name":"InsufficientProviderBalance","inputs":[{"name":"balance","type":"uint256","internalType":"uint256"},{"name":"requested","type":"uint256","internalType":"uint256"}]},{"type":"error","name":"MaxDrawNotInteger","inputs":[{"name":"maxDraw","type":"string","internalType":"string"}]},{"type":"error","name":"NotOwner","inputs":[{"name":"caller","type":"address","internalType":"address"}]},{"type":"error","name":"RepayExceedsDebt","inputs":[{"name":"agentId","type":"string","internalType":"string"},{"name":"debt","type":"uint256","internalType":"uint256"},{"name":"amount","type":"uint256","internalType":"uint256"}]},{"type":"error","name":"TransferFailed","inputs":[]},{"type":"error","name":"ZeroOwner","inputs":[]}],"bytecode":{"object":"0x6101003461014d57601f6112a338819003918201601f19168301916001600160401b038311848410176101515780849260a09460405283398101031261014d5780516001600160a01b0380821692909183900361014d576020810151828116810361014d57604082015190838216820361014d57606083015192848416840361014d5760800151938416840361014d57841561013b575f80546001600160a01b0319168617815560405195907f8be0079c531659141344cd1fd0a4f28419497f9722a3daafe3b4186f6b6457e08180a360805260a05260c05260e05261113d90816101668239608051818181610bae01528181610e5e01528181610fe701526110d0015260a0518181816107350152610d09015260c0518181816102630152818161095c0152610b48015260e05181818160d7015261049d0152f35b604051639905827b60e01b8152600490fd5b5f80fd5b634e487b7160e01b5f52604160045260245ffdfe6080806040526004361015610012575f80fd5b5f905f3560e01c908162b905b914610d725750806315770f9214610d5557806316078d0414610d3857806329a2b3cf14610cf45780632e1a7d4d14610c155780633c4750df14610bdd5780633e413bee14610b995780637437535914610b775780637498f23714610b335780637826db2e146104165780638da5cb5b146103ef578063b6b55f251461036d578063e42c54a6146101a1578063f2fde38b146101095763fff6fe2c146100c2575f80fd5b346101065780600319360112610106576040517f00000000000000000000000000000000000000000000000000000000000000006001600160a01b03168152602090f35b80fd5b503461010657602036600319011261010657610123610deb565b8154906001600160a01b0380831691338390036101895716918215610177576001600160a01b031916821783557f8be0079c531659141344cd1fd0a4f28419497f9722a3daafe3b4186f6b6457e08380a380f35b604051639905827b60e01b8152600490fd5b60405163245aecd360e01b8152336004820152602490fd5b5034610106576060366003190112610106576004356001600160401b038111610369576101d2903690600401610dbe565b60249291923590811561035757604051938181863784828101600481526020968791030190205480841161032257836102149161020f8233611097565b610e01565b938460405184848237878186810160048152030190205561023784600254610e01565b60025560405163390bafeb60e11b81529086828061025e60443589308a8a60048701610f81565b0381847f00000000000000000000000000000000000000000000000000000000000000006001600160a01b03165af190811561031657509086916102e9575b505081604051928392833781015f815203902060405191825282848301527fe58010fc85d22ec3375637de339550a1428f8cb43c1735eade0b7185525f557960403393a3604051908152f35b813d831161030f575b6102fc8183610e22565b8101031261030b57845f61029d565b5f80fd5b503d6102f2565b604051903d90823e3d90fd5b9092610348604051948594631df32ee960e21b8652606060048701526064860191610f11565b91602484015260448301520390fd5b6040516365e52d5160e11b8152600490fd5b5080fd5b5034610106576020366003190112610106576004358015610357576103928133611097565b3382526003602052604082206103a9828254610f74565b90556103b781600154610f74565b8060015560405191825260208201527fb7cd4486a08dcd2bf7da217a07d1069da69db8ffb3518c7014d6e6d4d973a55260403392a280f35b5034610106578060031936011261010657546040516001600160a01b039091168152602090f35b503461030b5760c036600319011261030b576001600160401b036004351161030b576101a06004353603600319011261030b576024356001600160401b03811161030b57610468903690600401610dbe565b6064356001600160401b03811161030b57610487903690600401610dbe565b926084356001600160a01b038116900361030b577f00000000000000000000000000000000000000000000000000000000000000006001600160a01b0316803b1561030b575f60049160405192838092637d6a5f7b60e01b82525afa8015610b2857610af8575b5060a43515610357576084356001600160a01b031615610ae6576040519263676478cf60e11b8452608060048501526105c261059c61057661055061053d600435600401600435600401610ee0565b6101a060848b01526102248a0191610f11565b610564602460043501600435600401610ee0565b8983036083190160a48b015290610f11565b61058a604460043501600435600401610ee0565b8883036083190160c48a015290610f11565b6105b0606460043501600435600401610ee0565b8783036083190160e489015290610f11565b916105ef6105da608460043501600435600401610ee0565b610104959160831989840301878a0152610f11565b60a460043501356001600160a01b038116949085900361030b576106af87809661069961068161067761064f6106c298610124958688015261063b60c460043501600435600401610ee0565b88830360831901610144998a015290610f11565b61066360e460043501600435600401610ee0565b8d8303608319016101649e8f015290610f11565b9560043501610f31565b9163ffffffff8093166101848d015260043501610f31565b166101a48a015260043501600435600401610ee0565b888303608319016101c48a015290610f11565b9260043501356001600160401b0381168103610ae25785938493610730936001600160401b0361071294166101e48701526101846004350135610204870152600319868403016024870152610f11565b60443560448401526003198382030160648401526020968795610f11565b0381867f00000000000000000000000000000000000000000000000000000000000000006001600160a01b03165af18015610ad757610aaa575b5061077f60c460043501600435600401610f42565b6001600160401b038194929411610a9657604051936107a7601f8301601f1916850186610e22565b8185523682820111610a9257818392859283880137850101528092805115610a755781935b81518510156108765783858301015160f81c60308110801561086c575b61084d57600a918281029281840414901517156108395760ff90602f1901818111610825579161081d916001931690610f74565b9401936107cc565b634e487b7160e01b85526011600452602485fd5b634e487b7160e01b84526011600452602484fd5b60405163025fd8df60e01b8152806108688560048301611050565b0390fd5b50603981116107e9565b90508060a43511610a55575061088a610e43565b8060a43511610a3557506109576108cc6108ae606460043501600435600401610f42565b8060405192833781019060048252858160a435930301902054610f74565b9182846108e3606460043501600435600401610f42565b9190826040519384928337810160048152030190205561090760a435600254610f74565b60025561091860a435608435610fb4565b8361092d606460043501600435600401610f42565b60405194859283926358037b7360e11b845261018460043501359160a43591309160048701610f81565b0381847f00000000000000000000000000000000000000000000000000000000000000006001600160a01b03165af19081156103165750908391610a0c575b50506109ac606460043501600435600401610f42565b9081604051928392833781015f815203902060405160a435815282848201526101846004350135917f9a9c63a42efa76cacc620ac636d115117fed5c40e63b01c5e65a2a049c1761f1604060018060a01b036084351693a4604051908152f35b813d8311610a2e575b610a1f8183610e22565b8101031261030b578183610996565b503d610a15565b6044906040519063a17e11d560e01b8252600482015260a4356024820152fd5b6044906040519063236cc99b60e01b825260a43560048301526024820152fd5b60405163025fd8df60e01b81529081906108689060048301611050565b8280fd5b634e487b7160e01b82526041600452602482fd5b610ac990823d8411610ad0575b610ac18183610e22565b810190610ec8565b505f61076a565b503d610ab7565b6040513d85823e3d90fd5b8780fd5b604051633935bd0160e11b8152600490fd5b9094506001600160401b038111610b14576040525f935f6104ee565b634e487b7160e01b5f52604160045260245ffd5b6040513d5f823e3d90fd5b3461030b575f36600319011261030b576040517f00000000000000000000000000000000000000000000000000000000000000006001600160a01b03168152602090f35b3461030b575f36600319011261030b576020610b91610e43565b604051908152f35b3461030b575f36600319011261030b576040517f00000000000000000000000000000000000000000000000000000000000000006001600160a01b03168152602090f35b3461030b57602036600319011261030b576001600160a01b03610bfe610deb565b165f526003602052602060405f2054604051908152f35b3461030b57602036600319011261030b57600435801561035757335f52600360205260405f2054808211610cd757610c4b610e43565b808311610cb9575081610c5d91610e01565b335f52600360205260405f2055610c7681600154610e01565b600155610c838133610fb4565b60015460405191825260208201527fb195a67e698c5700e4f48f7b7748dda3a206ee2767ef024b61a26d7b17b2d63a60403392a2005b604490836040519163a17e11d560e01b835260048301526024820152fd5b6044916040519163e996c7c360e01b835260048301526024820152fd5b3461030b575f36600319011261030b576040517f00000000000000000000000000000000000000000000000000000000000000006001600160a01b03168152602090f35b3461030b575f36600319011261030b576020600254604051908152f35b3461030b575f36600319011261030b576020600154604051908152f35b3461030b57602036600319011261030b57600435906001600160401b03821161030b57602081610da782943690600401610dbe565b809183378101600481520301902054604051908152f35b9181601f8401121561030b578235916001600160401b03831161030b576020838186019501011161030b57565b600435906001600160a01b038216820361030b57565b91908203918211610e0e57565b634e487b7160e01b5f52601160045260245ffd5b90601f801991011681019081106001600160401b03821117610b1457604052565b6040516370a0823160e01b81523060048201526020816024817f00000000000000000000000000000000000000000000000000000000000000006001600160a01b03165afa908115610b28575f91610e99575090565b90506020813d602011610ec0575b81610eb460209383610e22565b8101031261030b575190565b3d9150610ea7565b9081602091031261030b5751801515810361030b5790565b9035601e198236030181121561030b5701602081359101916001600160401b03821161030b57813603831361030b57565b908060209392818452848401375f828201840152601f01601f1916010190565b359063ffffffff8216820361030b57565b903590601e198136030182121561030b57018035906001600160401b03821161030b5760200191813603831361030b57565b91908201809211610e0e57565b9160609396959491610f9b91608085526080850191610f11565b6001600160a01b03909616602083015260408201520152565b60405163a9059cbb60e01b81526001600160a01b0391821660048201526024810192909252602090829060449082905f907f0000000000000000000000000000000000000000000000000000000000000000165af1908115610b28575f91611031575b501561101f57565b6040516312171d8360e31b8152600490fd5b61104a915060203d602011610ad057610ac18183610e22565b5f611017565b602080825282518183018190529093925f5b82811061108357505060409293505f838284010152601f8019910116010190565b818101860151848201604001528501611062565b6040516323b872dd60e01b81526001600160a01b0391821660048201523060248201526044810192909252602090829060649082905f907f0000000000000000000000000000000000000000000000000000000000000000165af1908115610b28575f9161103157501561101f5756fea2646970667358221220b99a425dd1c929a93e56c82c355f0fe1bb7f2745a71da305ad5582ee5e5bb58f64736f6c63430008180033","linkReferences":{}},"methodIdentifiers":{"availableLiquidity()":"74375359","debtOf(string)":"00b905b9","deposit(uint256)":"b6b55f25","draw((string,string,string,string,string,address,string,string,uint32,uint32,string,uint64,bytes32),bytes,bytes32,bytes,address,uint256)":"7826db2e","exposureReporter()":"7498f237","liquidityOf(address)":"3c4750df","noteVerifier()":"29a2b3cf","owner()":"8da5cb5b","pauseGuard()":"fff6fe2c","repay(string,uint256,bytes32)":"e42c54a6","totalLiquidity()":"15770f92","totalOutstanding()":"16078d04","transferOwnership(address)":"f2fde38b","usdc()":"3e413bee","withdraw(uint256)":"2e1a7d4d"},"id":2}