{"abi":[{"type":"constructor","inputs":[{"name":"initialOwner","type":"address","internalType":"address"}],"stateMutability":"nonpayable"},{"type":"function","name":"attestEvidence","inputs":[{"name":"uaid","type":"string","internalType":"string"},{"name":"agentId","type":"string","internalType":"string"},{"name":"evidenceType","type":"string","internalType":"string"},{"name":"evidenceHash","type":"bytes32","internalType":"bytes32"},{"name":"sourceHash","type":"bytes32","internalType":"bytes32"},{"name":"linkedReceiptId","type":"bytes32","internalType":"bytes32"},{"name":"confidenceBps","type":"uint16","internalType":"uint16"},{"name":"timestamp","type":"uint64","internalType":"uint64"}],"outputs":[],"stateMutability":"nonpayable"},{"type":"function","name":"attestationCount","inputs":[],"outputs":[{"name":"","type":"uint256","internalType":"uint256"}],"stateMutability":"view"},{"type":"function","name":"attestationKey","inputs":[{"name":"uaid","type":"string","internalType":"string"},{"name":"agentId","type":"string","internalType":"string"},{"name":"evidenceHash","type":"bytes32","internalType":"bytes32"}],"outputs":[{"name":"","type":"bytes32","internalType":"bytes32"}],"stateMutability":"pure"},{"type":"function","name":"attestationKeyAt","inputs":[{"name":"index","type":"uint256","internalType":"uint256"}],"outputs":[{"name":"","type":"bytes32","internalType":"bytes32"}],"stateMutability":"view"},{"type":"function","name":"getAttestation","inputs":[{"name":"key","type":"bytes32","internalType":"bytes32"}],"outputs":[{"name":"","type":"tuple","internalType":"struct Cred402EvidenceOutbox.EvidenceAttestation","components":[{"name":"uaid","type":"string","internalType":"string"},{"name":"agentId","type":"string","internalType":"string"},{"name":"evidenceType","type":"string","internalType":"string"},{"name":"evidenceHash","type":"bytes32","internalType":"bytes32"},{"name":"sourceHash","type":"bytes32","internalType":"bytes32"},{"name":"linkedReceiptId","type":"bytes32","internalType":"bytes32"},{"name":"confidenceBps","type":"uint16","internalType":"uint16"},{"name":"timestamp","type":"uint64","internalType":"uint64"},{"name":"recordedAt","type":"uint64","internalType":"uint64"},{"name":"exists","type":"bool","internalType":"bool"}]}],"stateMutability":"view"},{"type":"function","name":"owner","inputs":[],"outputs":[{"name":"","type":"address","internalType":"address"}],"stateMutability":"view"},{"type":"function","name":"setSubmitter","inputs":[{"name":"submitter","type":"address","internalType":"address"},{"name":"allowed","type":"bool","internalType":"bool"}],"outputs":[],"stateMutability":"nonpayable"},{"type":"function","name":"submitters","inputs":[{"name":"","type":"address","internalType":"address"}],"outputs":[{"name":"","type":"bool","internalType":"bool"}],"stateMutability":"view"},{"type":"function","name":"transferOwnership","inputs":[{"name":"newOwner","type":"address","internalType":"address"}],"outputs":[],"stateMutability":"nonpayable"},{"type":"event","name":"EvidenceAttested","inputs":[{"name":"attestationKey","type":"bytes32","indexed":true,"internalType":"bytes32"},{"name":"uaid","type":"string","indexed":false,"internalType":"string"},{"name":"agentId","type":"string","indexed":false,"internalType":"string"},{"name":"evidenceType","type":"string","indexed":false,"internalType":"string"},{"name":"evidenceHash","type":"bytes32","indexed":false,"internalType":"bytes32"},{"name":"linkedReceiptId","type":"bytes32","indexed":false,"internalType":"bytes32"},{"name":"confidenceBps","type":"uint16","indexed":false,"internalType":"uint16"},{"name":"timestamp","type":"uint64","indexed":false,"internalType":"uint64"}],"anonymous":false},{"type":"event","name":"OwnershipTransferred","inputs":[{"name":"previousOwner","type":"address","indexed":true,"internalType":"address"},{"name":"newOwner","type":"address","indexed":true,"internalType":"address"}],"anonymous":false},{"type":"event","name":"SubmitterSet","inputs":[{"name":"submitter","type":"address","indexed":true,"internalType":"address"},{"name":"allowed","type":"bool","indexed":false,"internalType":"bool"}],"anonymous":false},{"type":"error","name":"ConfidenceOutOfRange","inputs":[{"name":"confidenceBps","type":"uint16","internalType":"uint16"}]},{"type":"error","name":"EmptyUaid","inputs":[]},{"type":"error","name":"EvidenceExists","inputs":[{"name":"attestationKey","type":"bytes32","internalType":"bytes32"}]},{"type":"error","name":"NotOwner","inputs":[{"name":"caller","type":"address","internalType":"address"}]},{"type":"error","name":"NotSubmitter","inputs":[{"name":"caller","type":"address","internalType":"address"}]},{"type":"error","name":"ZeroOwner","inputs":[]}],"bytecode":{"object":"0x6080346100f357601f610ef338819003918201601f19168301916001600160401b038311848410176100f7578084926020946040528339810103126100f357516001600160a01b038116908190036100f35780156100e1575f80546001600160a01b031916821781556040517f54992e75d6204e64e6576ace5c7d2782c63fbb124424beb2fbaf3199c8817618916020919084907f8be0079c531659141344cd1fd0a4f28419497f9722a3daafe3b4186f6b6457e08180a3835f526001825260405f20600160ff1982541617905560018152a2604051610de7908161010c8239f35b604051639905827b60e01b8152600490fd5b5f80fd5b634e487b7160e01b5f52604160045260245ffdfe60806040526004361015610011575f80fd5b5f3560e01c806303f5da9d14610a9d5780630656043514610a60578063876463bd146103c65780638da5cb5b1461039f57806396fbdc991461031c578063a15b9321146102ff578063a3112a6414610144578063f2ad80f7146101185763f2fde38b1461007c575f80fd5b3461011457602036600319011261011457610095610b9e565b5f54906001600160a01b0380831691338390036100fc57169182156100ea576001600160a01b03191682175f9081557f8be0079c531659141344cd1fd0a4f28419497f9722a3daafe3b4186f6b6457e09080a3005b604051639905827b60e01b8152600490fd5b60405163245aecd360e01b8152336004820152602490fd5b5f80fd5b34610114576020366003190112610114576020610136600435610ca6565b90546040519160031b1c8152f35b34610114576020366003190112610114575f61012060405161016581610afe565b6060815260606020820152606060408201528260608201528260808201528260a08201528260c08201528260e08201528261010082015201526004355f52600260205260405f2060ff6006604051926101bd84610afe565b6101c681610d0f565b84526101d460018201610d0f565b60208501526101e560028201610d0f565b60408501526003810154606085015260048101546080850152600581015460a0850152015461ffff811660c08401526001600160401b038160101c1660e08401526001600160401b038160501c1661010084015260901c16151561012082015260405180916020825261012061029d61026c83516101406020870152610160860190610be1565b610288602085015191601f199283888303016040890152610be1565b90604085015190868303016060870152610be1565b9160608101516080850152608081015160a085015260a081015160c085015261ffff60c08201511660e08501526001600160401b0360e0820151166101008501526001600160401b036101008201511682850152015115156101408301520390f35b34610114575f366003190112610114576020600354604051908152f35b3461011457604036600319011261011457610335610b9e565b60243590811515809203610114575f546001600160a01b039190821633036100fc577f54992e75d6204e64e6576ace5c7d2782c63fbb124424beb2fbaf3199c8817618916020911692835f526001825260405f2060ff1981541660ff8316179055604051908152a2005b34610114575f366003190112610114575f546040516001600160a01b039091168152602090f35b3461011457610100366003190112610114576004356001600160401b038111610114576103f7903690600401610bb4565b6024356001600160401b03811161011457610416903690600401610bb4565b9190926044356001600160401b03811161011457610438903690600401610bb4565b93909460c4359161ffff831683036101145760e435906001600160401b038216820361011457335f52600160205260ff60405f20541615610a48578515610a365761271061ffff851611610a1a576104a9610494368888610b3b565b606435906104a3368588610b3b565b90610c1f565b97885f52600260205260ff600660405f20015460901c16610a01576040516104d081610afe565b6104db368989610b3b565b81526104e8368487610b3b565b60208201526104f8368a84610b3b565b60408201526064356060820152608435608082015260a43560a082015261ffff861660c08201526001600160401b03841660e08201526001600160401b0342166101008201526001610120820152895f52600260205260405f2081518051906001600160401b0382116107a65781906105718454610c6e565b601f81116109b4575b50602090601f831160011461094c575f92610941575b50508160011b915f199060031b1c19161781555b60208201518051906001600160401b0382116107a65781906105c96001850154610c6e565b601f81116108f1575b50602090601f8311600114610883575f92610878575b50508160011b915f199060031b1c19161760018201555b60408201518051906001600160401b0382116107a6576106226002840154610c6e565b601f8111610834575b50602090601f83116001146107c55760069392915f91836107ba575b50508160011b915f199060031b1c19161760028201555b606083015160038201556080830151600482015560a08301516005820155019061ffff60c0820151169082549169ffffffffffffffff000060e083015160101b16906001600160401b0360501b61010084015160501b169261012060ff60901b910151151560901b16936cffffffffffffffffffffffffff60981b1617171717905560035490680100000000000000008210156107a6577f529b1cb71a4f7619213df391024d124b9607e970bdc3751e9c71d763a948dc14986107766001600160401b039661ffff9561076860e09b8f6107418960016107849b01600355610ca6565b819291549060031b91821b915f19901b19161790556040519d8d8f9e8f9081520191610cef565b918b830360208d0152610cef565b9188830360408a0152610cef565b93606435606087015260a43560808701521660a08501521660c08301520390a2005b634e487b7160e01b5f52604160045260245ffd5b015190508e80610647565b90600284015f5260205f20915f5b601f198516811061081c575091839160019360069695601f19811610610804575b505050811b01600282015561065e565b01515f1960f88460031b161c191690558e80806107f4565b919260206001819286850151815501940192016107d3565b600284015f5260205f20601f840160051c810160208510610871575b601f830160051c8201811061086657505061062b565b5f8155600101610850565b5080610850565b015190508d806105e8565b9250600184015f5260205f20905f935b601f19841685106108d6576001945083601f198116106108be575b505050811b0160018201556105ff565b01515f1960f88460031b161c191690558d80806108ae565b81810151835560209485019460019093019290910190610893565b909150600184015f5260205f20601f840160051c81016020851061093a575b90849392915b601f830160051c8201811061092c5750506105d2565b5f8155859450600101610916565b5080610910565b015190508d80610590565b9250835f5260205f20905f935b601f1984168510610999576001945083601f19811610610981575b505050811b0181556105a4565b01515f1960f88460031b161c191690558d8080610974565b81810151835560209485019460019093019290910190610959565b909150835f5260205f20601f840160051c8101602085106109fa575b90849392915b601f830160051c820181106109ec57505061057a565b5f81558594506001016109d6565b50806109d0565b604051631f393f9160e21b8152600481018a9052602490fd5b604051634b4a39bf60e01b815261ffff85166004820152602490fd5b60405163f9b194d160e01b8152600490fd5b604051630b5024e560e11b8152336004820152602490fd5b34610114576020366003190112610114576001600160a01b03610a81610b9e565b165f526001602052602060ff60405f2054166040519015158152f35b34610114576060366003190112610114576001600160401b0360043581811161011457610ace903690600401610b80565b9060243590811161011457602091610aed610af6923690600401610b80565b60443591610c1f565b604051908152f35b61014081019081106001600160401b038211176107a657604052565b90601f801991011681019081106001600160401b038211176107a657604052565b9291926001600160401b0382116107a65760405191610b64601f8201601f191660200184610b1a565b829481845281830111610114578281602093845f960137010152565b9080601f8301121561011457816020610b9b93359101610b3b565b90565b600435906001600160a01b038216820361011457565b9181601f84011215610114578235916001600160401b038311610114576020838186019501011161011457565b91908251928382525f5b848110610c0b575050825f602080949584010152601f8019910116010190565b602081830181015184830182015201610beb565b9190610c68906040518093610c56610c436020840197606089526080850190610be1565b601f199485858303016040860152610be1565b90606083015203908101835282610b1a565b51902090565b90600182811c92168015610c9c575b6020831014610c8857565b634e487b7160e01b5f52602260045260245ffd5b91607f1691610c7d565b600354811015610cdb5760035f527fc2575a0e9e593c00f959f8c92f12db2869c3395a3b0502d05e2516446f71f85b01905f90565b634e487b7160e01b5f52603260045260245ffd5b908060209392818452848401375f828201840152601f01601f1916010190565b9060405191825f8254610d2181610c6e565b908184526020946001916001811690815f14610d8f5750600114610d51575b505050610d4f92500383610b1a565b565b5f90815285812095935091905b818310610d77575050610d4f93508201015f8080610d40565b85548884018501529485019487945091830191610d5e565b92505050610d4f94925060ff191682840152151560051b8201015f8080610d4056fea2646970667358221220d015ccc4972ddd9d4f00b1b0ca5ed2c5572e42a3bd7187cfbdc304f6567f458064736f6c63430008180033","linkReferences":{}},"methodIdentifiers":{"attestEvidence(string,string,string,bytes32,bytes32,bytes32,uint16,uint64)":"876463bd","attestationCount()":"a15b9321","attestationKey(string,string,bytes32)":"03f5da9d","attestationKeyAt(uint256)":"f2ad80f7","getAttestation(bytes32)":"a3112a64","owner()":"8da5cb5b","setSubmitter(address,bool)":"96fbdc99","submitters(address)":"06560435","transferOwnership(address)":"f2fde38b"},"id":5}