{"abi":[{"type":"constructor","inputs":[{"name":"initialOwner","type":"address","internalType":"address"}],"stateMutability":"nonpayable"},{"type":"function","name":"disputeCount","inputs":[],"outputs":[{"name":"","type":"uint256","internalType":"uint256"}],"stateMutability":"view"},{"type":"function","name":"disputeKey","inputs":[{"name":"disputeId","type":"string","internalType":"string"}],"outputs":[{"name":"","type":"bytes32","internalType":"bytes32"}],"stateMutability":"pure"},{"type":"function","name":"disputeKeyAt","inputs":[{"name":"index","type":"uint256","internalType":"uint256"}],"outputs":[{"name":"","type":"bytes32","internalType":"bytes32"}],"stateMutability":"view"},{"type":"function","name":"getDispute","inputs":[{"name":"disputeId","type":"string","internalType":"string"}],"outputs":[{"name":"","type":"tuple","internalType":"struct Cred402DisputeMirror.Dispute","components":[{"name":"disputeId","type":"string","internalType":"string"},{"name":"subjectKind","type":"uint8","internalType":"enum Cred402DisputeMirror.SubjectKind"},{"name":"subjectId","type":"string","internalType":"string"},{"name":"complainantAgentId","type":"string","internalType":"string"},{"name":"status","type":"uint8","internalType":"enum Cred402DisputeMirror.DisputeStatus"},{"name":"openedAt","type":"uint64","internalType":"uint64"},{"name":"updatedAt","type":"uint64","internalType":"uint64"},{"name":"exists","type":"bool","internalType":"bool"}]}],"stateMutability":"view"},{"type":"function","name":"isActive","inputs":[{"name":"disputeId","type":"string","internalType":"string"}],"outputs":[{"name":"","type":"bool","internalType":"bool"}],"stateMutability":"view"},{"type":"function","name":"mirrorDispute","inputs":[{"name":"disputeId","type":"string","internalType":"string"},{"name":"subjectKind","type":"uint8","internalType":"enum Cred402DisputeMirror.SubjectKind"},{"name":"subjectId","type":"string","internalType":"string"},{"name":"complainantAgentId","type":"string","internalType":"string"},{"name":"status","type":"uint8","internalType":"enum Cred402DisputeMirror.DisputeStatus"}],"outputs":[],"stateMutability":"nonpayable"},{"type":"function","name":"owner","inputs":[],"outputs":[{"name":"","type":"address","internalType":"address"}],"stateMutability":"view"},{"type":"function","name":"setStatus","inputs":[{"name":"disputeId","type":"string","internalType":"string"},{"name":"status","type":"uint8","internalType":"enum Cred402DisputeMirror.DisputeStatus"}],"outputs":[],"stateMutability":"nonpayable"},{"type":"function","name":"transferOwnership","inputs":[{"name":"newOwner","type":"address","internalType":"address"}],"outputs":[],"stateMutability":"nonpayable"},{"type":"event","name":"DisputeMirrored","inputs":[{"name":"disputeKey","type":"bytes32","indexed":true,"internalType":"bytes32"},{"name":"disputeId","type":"string","indexed":false,"internalType":"string"},{"name":"subjectKind","type":"uint8","indexed":false,"internalType":"enum Cred402DisputeMirror.SubjectKind"},{"name":"subjectId","type":"string","indexed":false,"internalType":"string"},{"name":"complainantAgentId","type":"string","indexed":false,"internalType":"string"},{"name":"status","type":"uint8","indexed":false,"internalType":"enum Cred402DisputeMirror.DisputeStatus"}],"anonymous":false},{"type":"event","name":"DisputeStatusChanged","inputs":[{"name":"disputeKey","type":"bytes32","indexed":true,"internalType":"bytes32"},{"name":"status","type":"uint8","indexed":false,"internalType":"enum Cred402DisputeMirror.DisputeStatus"}],"anonymous":false},{"type":"event","name":"OwnershipTransferred","inputs":[{"name":"previousOwner","type":"address","indexed":true,"internalType":"address"},{"name":"newOwner","type":"address","indexed":true,"internalType":"address"}],"anonymous":false},{"type":"error","name":"EmptyDisputeId","inputs":[]},{"type":"error","name":"NotOwner","inputs":[{"name":"caller","type":"address","internalType":"address"}]},{"type":"error","name":"UnknownDispute","inputs":[{"name":"disputeKey","type":"bytes32","internalType":"bytes32"}]},{"type":"error","name":"ZeroOwner","inputs":[]}],"bytecode":{"object":"0x6080346100af57601f610f7538819003918201601f19168301916001600160401b038311848410176100b3578084926020946040528339810103126100af57516001600160a01b038116908190036100af57801561009d575f80546001600160a01b0319168217815560405191907f8be0079c531659141344cd1fd0a4f28419497f9722a3daafe3b4186f6b6457e08180a3610ead90816100c88239f35b604051639905827b60e01b8152600490fd5b5f80fd5b634e487b7160e01b5f52604160045260245ffdfe6080806040526004361015610012575f80fd5b5f3560e01c908163053558bc1461055857508063490c789c146105075780638da5cb5b146104e05780639cf74080146104b4578063a28889e114610497578063a54294af146102cf578063c8902a2114610221578063deaab7a91461011d5763f2fde38b1461007f575f80fd5b34610119576020366003190112610119576004356001600160a01b0381811691829003610119575f54908116908133036101015782156100ef576001600160a01b03191682175f9081557f8be0079c531659141344cd1fd0a4f28419497f9722a3daafe3b4186f6b6457e09080a3005b604051639905827b60e01b8152600490fd5b60405163245aecd360e01b8152336004820152602490fd5b5f80fd5b34610119576040366003190112610119576001600160401b036004358181116101195761014e903690600401610bfd565b602435916005831015610119575f546001600160a01b0316330361010157610177913691610c67565b6020815191012091825f526001602052600460405f20019060ff825460881c161561020857916101f8827f1d194a043cd5cb060cf3ac8169a82328fec11ae21a1562e3289cf66280c95ce0946101cf84602096610d54565b421667ffffffffffffffff60481b82549160481b169067ffffffffffffffff60481b1916179055565b6102056040518092610cf7565ba2005b604051630e96d90b60e41b815260048101859052602490fd5b34610119576020366003190112610119576004356001600160401b0381116101195761025461025b913690600401610bfd565b3691610c67565b602081519101205f526001602052600460405f20015460ff8160881c16908161028c575b6020826040519015158152f35b60ff91501660058110156102bb57806001602092149081156102b0575b509061027f565b6002915014826102a9565b634e487b7160e01b5f52602160045260245ffd5b3461011957602080600319360112610119576001600160401b0360043581811161011957610304610347913690600401610bfd565b91906040519261031384610c2a565b5f60e0606095868152828982015286604082015286808201528260808201528260a08201528260c082015201523691610c67565b83815191012092835f526001815260405f20916040519361036785610c2a565b61037084610dd5565b855260ff600185015416956103888487019788610d04565b61039460028601610dd5565b966040870197885260046103aa60038801610dd5565b9685890197885201549360808801966103c660ff871689610d10565b60a0890192858760081c16845260c08a0194868860481c16865260ff60e08c019860881c16158015895261047f575090859392916040519b8c9b8a8d52518c6101009b8c9101526101208d0161041b91610cac565b915160408d0161042a91610cea565b5190601f1993848d830301908d015261044291610cac565b9051918a82030160808b015261045791610cac565b965160a0890161046691610cf7565b511660c0870152511660e0850152511515908301520390f35b60249060405190630e96d90b60e41b82526004820152fd5b34610119575f366003190112610119576020600254604051908152f35b346101195760203660031901126101195760206104d2600435610d6c565b90546040519160031b1c8152f35b34610119575f366003190112610119575f546040516001600160a01b039091168152602090f35b34610119576020366003190112610119576004356001600160401b03811161011957366023820112156101195761054a6020913690602481600401359101610c67565b818151910120604051908152f35b346101195760a0366003190112610119576004356001600160401b03811161011957610588903690600401610bfd565b919060046024351015610119576044356001600160401b038111610119576105b4903690600401610bfd565b9390926064356001600160401b038111610119576105d6903690600401610bfd565b909160056084351015610119575f546001600160a01b03163303610be857508215610bd657610606368486610c67565b6020815191012095865f526001602052600460405f20015460ff8160881c165f14610bc6576001600160401b038160081c16905b6001600160401b036040519261064f84610c2a565b61065a36898b610c67565b845261066b60243560208601610d04565b61067636868c610c67565b6040850152610686368789610c67565b606085015261069a60843560808601610d10565b1660a08301526001600160401b03421660c0830152600160e0830152885f52600160205260405f2082518051906001600160401b03821161096b5781906106e18454610d1c565b601f8111610b79575b50602090601f8311600114610b11575f92610b06575b50508160011b915f199060031b1c19161781555b60018101602084015160048110156102bb5760ff8019835416911617905560408301518051906001600160401b03821161096b5781906107576002850154610d1c565b601f8111610ab6575b50602090601f8311600114610a48575f92610a3d575b50508160011b915f199060031b1c19161760028201555b60608301518051906001600160401b03821161096b576107b06003840154610d1c565b601f81116109f9575b50602090601f831160011461098a5760049392915f918361097f575b50508160011b915f199060031b1c19161760038201555b01608083015160058110156102bb5760ff9361080a60e09284610d54565b60a0810151835460c083015170ffffffffffffffffffffffffffffffff001990911660089290921b68ffffffffffffffff00169190911760489190911b67ffffffffffffffff60481b16178355015115158154908460881b9060881b16908460881b191617905560881c16156108fc575b906108da7f4bdd9e29f2cc86a87c112524680e357a4ec92b59bd9819111e398c43bb58f0b1966108e894936108bd60405198899860a08a5260a08a0191610db5565b916108cd60208901602435610cea565b8783036040890152610db5565b918483036060860152610db5565b6108f760808301608435610cf7565b0390a2005b91906002546801000000000000000081101561096b577f4bdd9e29f2cc86a87c112524680e357a4ec92b59bd9819111e398c43bb58f0b1966108e89461094b8360016108da9501600255610d6c565b81549060031b908c821b915f19901b19161790559293945096505061087b565b634e487b7160e01b5f52604160045260245ffd5b015190508d806107d5565b90600384015f5260205f20915f5b601f19851681106109e1575091839160019360049695601f198116106109c9575b505050811b0160038201556107ec565b01515f1960f88460031b161c191690558d80806109b9565b91926020600181928685015181550194019201610998565b600384015f5260205f20601f840160051c810160208510610a36575b601f830160051c82018110610a2b5750506107b9565b5f8155600101610a15565b5080610a15565b015190508c80610776565b9250600284015f5260205f20905f935b601f1984168510610a9b576001945083601f19811610610a83575b505050811b01600282015561078d565b01515f1960f88460031b161c191690558c8080610a73565b81810151835560209485019460019093019290910190610a58565b909150600284015f5260205f20601f840160051c810160208510610aff575b90849392915b601f830160051c82018110610af1575050610760565b5f8155859450600101610adb565b5080610ad5565b015190508c80610700565b9250835f5260205f20905f935b601f1984168510610b5e576001945083601f19811610610b46575b505050811b018155610714565b01515f1960f88460031b161c191690558c8080610b39565b81810151835560209485019460019093019290910190610b1e565b909150835f5260205f20601f840160051c810160208510610bbf575b90849392915b601f830160051c82018110610bb15750506106ea565b5f8155859450600101610b9b565b5080610b95565b6001600160401b0342169061063a565b60405163d6f1780160e01b8152600490fd5b63245aecd360e01b8152336004820152602490fd5b9181601f84011215610119578235916001600160401b038311610119576020838186019501011161011957565b61010081019081106001600160401b0382111761096b57604052565b90601f801991011681019081106001600160401b0382111761096b57604052565b9291926001600160401b03821161096b5760405191610c90601f8201601f191660200184610c46565b829481845281830111610119578281602093845f960137010152565b91908251928382525f5b848110610cd6575050825f602080949584010152601f8019910116010190565b602081830181015184830182015201610cb6565b9060048210156102bb5752565b9060058210156102bb5752565b60048210156102bb5752565b60058210156102bb5752565b90600182811c92168015610d4a575b6020831014610d3657565b634e487b7160e01b5f52602260045260245ffd5b91607f1691610d2b565b9060058110156102bb5760ff80198354169116179055565b600254811015610da15760025f527f405787fa12a823e0f2b7631cc41b3ba8828b3321ca811111fa75cd3aa3bb5ace01905f90565b634e487b7160e01b5f52603260045260245ffd5b908060209392818452848401375f828201840152601f01601f1916010190565b9060405191825f8254610de781610d1c565b908184526020946001916001811690815f14610e555750600114610e17575b505050610e1592500383610c46565b565b5f90815285812095935091905b818310610e3d575050610e1593508201015f8080610e06565b85548884018501529485019487945091830191610e24565b92505050610e1594925060ff191682840152151560051b8201015f8080610e0656fea264697066735822122045bb3edf7dbc8abc6df91ec955a88fb05391bded48bf15e5a976185b01b56ed064736f6c63430008180033","linkReferences":{}},"methodIdentifiers":{"disputeCount()":"a28889e1","disputeKey(string)":"490c789c","disputeKeyAt(uint256)":"9cf74080","getDispute(string)":"a54294af","isActive(string)":"c8902a21","mirrorDispute(string,uint8,string,string,uint8)":"053558bc","owner()":"8da5cb5b","setStatus(string,uint8)":"deaab7a9","transferOwnership(address)":"f2fde38b"},"id":3}