{"abi":[{"type":"constructor","inputs":[{"name":"initialOwner","type":"address","internalType":"address"}],"stateMutability":"nonpayable"},{"type":"function","name":"agentCount","inputs":[],"outputs":[{"name":"","type":"uint256","internalType":"uint256"}],"stateMutability":"view"},{"type":"function","name":"casperAccountOf","inputs":[{"name":"agentId","type":"string","internalType":"string"}],"outputs":[{"name":"","type":"bytes32","internalType":"bytes32"}],"stateMutability":"view"},{"type":"function","name":"getAgent","inputs":[{"name":"agentId","type":"string","internalType":"string"}],"outputs":[{"name":"","type":"tuple","internalType":"struct Cred402SatelliteRegistry.SatelliteAgent","components":[{"name":"caid","type":"string","internalType":"string"},{"name":"casperAccount","type":"bytes32","internalType":"bytes32"},{"name":"mirroredAt","type":"uint64","internalType":"uint64"},{"name":"active","type":"bool","internalType":"bool"},{"name":"exists","type":"bool","internalType":"bool"}]}],"stateMutability":"view"},{"type":"function","name":"isActive","inputs":[{"name":"agentId","type":"string","internalType":"string"}],"outputs":[{"name":"","type":"bool","internalType":"bool"}],"stateMutability":"view"},{"type":"function","name":"isRegistered","inputs":[{"name":"agentId","type":"string","internalType":"string"}],"outputs":[{"name":"","type":"bool","internalType":"bool"}],"stateMutability":"view"},{"type":"function","name":"mirrorAgent","inputs":[{"name":"agentId","type":"string","internalType":"string"},{"name":"caid","type":"string","internalType":"string"},{"name":"casperAccount","type":"bytes32","internalType":"bytes32"}],"outputs":[],"stateMutability":"nonpayable"},{"type":"function","name":"owner","inputs":[],"outputs":[{"name":"","type":"address","internalType":"address"}],"stateMutability":"view"},{"type":"function","name":"setAgentActive","inputs":[{"name":"agentId","type":"string","internalType":"string"},{"name":"active","type":"bool","internalType":"bool"}],"outputs":[],"stateMutability":"nonpayable"},{"type":"function","name":"transferOwnership","inputs":[{"name":"newOwner","type":"address","internalType":"address"}],"outputs":[],"stateMutability":"nonpayable"},{"type":"event","name":"AgentMirrored","inputs":[{"name":"agentId","type":"string","indexed":true,"internalType":"string"},{"name":"caid","type":"string","indexed":false,"internalType":"string"},{"name":"casperAccount","type":"bytes32","indexed":false,"internalType":"bytes32"},{"name":"mirroredAt","type":"uint64","indexed":false,"internalType":"uint64"}],"anonymous":false},{"type":"event","name":"AgentStatusChanged","inputs":[{"name":"agentId","type":"string","indexed":true,"internalType":"string"},{"name":"active","type":"bool","indexed":false,"internalType":"bool"}],"anonymous":false},{"type":"event","name":"OwnershipTransferred","inputs":[{"name":"previousOwner","type":"address","indexed":true,"internalType":"address"},{"name":"newOwner","type":"address","indexed":true,"internalType":"address"}],"anonymous":false},{"type":"error","name":"AgentExists","inputs":[{"name":"agentId","type":"string","internalType":"string"}]},{"type":"error","name":"EmptyAgentId","inputs":[]},{"type":"error","name":"NotOwner","inputs":[{"name":"caller","type":"address","internalType":"address"}]},{"type":"error","name":"UnknownAgent","inputs":[{"name":"agentId","type":"string","internalType":"string"}]},{"type":"error","name":"ZeroOwner","inputs":[]}],"bytecode":{"object":"0x6080346100af57601f610ae238819003918201601f19168301916001600160401b038311848410176100b3578084926020946040528339810103126100af57516001600160a01b038116908190036100af57801561009d575f80546001600160a01b0319168217815560405191907f8be0079c531659141344cd1fd0a4f28419497f9722a3daafe3b4186f6b6457e08180a3610a1a90816100c88239f35b604051639905827b60e01b8152600490fd5b5f80fd5b634e487b7160e01b5f52604160045260245ffdfe6080806040526004361015610012575f80fd5b60e05f3560e01c91826336daa1351461089c5750816347edb673146107a4578163794464e9146105ac575080638da5cb5b14610585578063b7dc128414610568578063c822d7f01461050c578063c8902a2114610499578063f2fde38b146104175763f6a9f59914610082575f80fd5b346103bc5760603660031901126103bc576004356001600160401b0381116103bc576100b2903690600401610923565b6024356001600160401b0381116103bc576100d1903690600401610923565b5f549092906001600160a01b031633036103ff5780156103ed5760ff6002604051838782376020818581016001815203019020015460481c166103c0576040519361011b85610970565b6001600160401b0384116103a857601f1994604051610142602088601f890116018261098b565b85815236868601116103bc57858560208301375f60208783010152815260443560208201526001600160401b034216604082015260016060820152600160808201526040518383823760208185810160018152030190208151968751906001600160401b0382116103a8576101b783546109ac565b601f8111610363575b50602090601f83116001146102da575091816002926080947fbbf30551b68c3202f1e6c00d9d9d1a246450233c2910e889989b863b7a0db6ed9a9b5f926102cf575b50508160011b915f199060031b1c19161781555b6020840151600182015501916001600160401b036040820151166001600160401b031984541617835561026660608201511515849060ff60401b825491151560401b169060ff60401b1916179055565b0151151560ff60481b82549160481b169060ff60481b191617905560016002540160025581604051928392833781015f8152039020926102b3604051928392606084526060840191610950565b60443560208301526001600160401b03421660408301520390a2005b015190505f80610202565b98835f5260205f20995f5b818516811061034b5750927fbbf30551b68c3202f1e6c00d9d9d1a246450233c2910e889989b863b7a0db6ed999a6080959360019383600297811610610333575b505050811b018155610216565b01515f1960f88460031b161c191690555f8080610326565b838301518c556001909b019a602093840193016102e5565b835f5260205f20601f840160051c8101916020851061039e575b601f0160051c01905b81811061039357506101c0565b5f8155600101610386565b909150819061037d565b634e487b7160e01b5f52604160045260245ffd5b5f80fd5b60405160016215614960e01b03198152602060048201529081906103e990602483019087610950565b0390fd5b604051633f7f02e960e01b8152600490fd5b60405163245aecd360e01b8152336004820152602490fd5b346103bc5760203660031901126103bc576004356001600160a01b03818116918290036103bc575f54908116908133036103ff578215610487576001600160a01b03191682175f9081557f8be0079c531659141344cd1fd0a4f28419497f9722a3daafe3b4186f6b6457e09080a3005b604051639905827b60e01b8152600490fd5b346103bc5760203660031901126103bc576004356001600160401b0381116103bc57600260206104ce81933690600401610923565b919082604051938492833781016001815203019020015460ff8160481c1690816104fe575b506040519015158152f35b60ff915060401c16826104f3565b346103bc5760203660031901126103bc576004356001600160401b0381116103bc5760ff6002602061054381943690600401610923565b919082604051938492833781016001815203019020015460481c166040519015158152f35b346103bc575f3660031901126103bc576020600254604051908152f35b346103bc575f3660031901126103bc575f546040516001600160a01b039091168152602090f35b346103bc57602090816003193601126103bc576001600160401b03916004358381116103bc576105e0903690600401610923565b935f60806040516105f081610970565b6060815282868201528260408201528260608201520152604051948083873780860195848160019860018152030190206040519661062d88610970565b60405190815f84549261063f846109ac565b938484528a6001821691825f14610784575050600114610748575b506106679250038261098b565b8752600260018201549186890192835201549460408801928487168452606089019560ff8860401c161515875260ff60808b019860481c1615801589526107235750508787878787876040519788968888525160a0898901528051968760c08a01525f5b88811061070b5750505060e097505f88878901015251604087015251166060850152511515608084015251151560a0830152601f80199101168101030190f35b8083018b01519981018201999099528a988a016106cb565b6040516321746f9160e21b8152600481018490529182916103e9916024840191610950565b899150855f52815f20905f915b85831061076c57505061066793508201018b61065a565b80548388018501528694508b93909201918101610755565b60ff19168582015261066795151560051b85010192508d915061065a9050565b346103bc5760403660031901126103bc576004356001600160401b0381116103bc576107d4903690600401610923565b60243591821515928381036103bc575f546001600160a01b031633036103ff5760026040518484823760208186810160018152030190200160ff815460481c161561087957805468ff0000000000000000191691151560401b60ff60401b169190911790557f080eeb97a9c69e587fbba6a3029d0afe52cc9e1ba0818c1b55522892617f17379160209181604051928392833781015f815203902092604051908152a2005b6040516321746f9160e21b815260206004820152806103e9602482018787610950565b346103bc5760203660031901126103bc576004356001600160401b0381116103bc576108cc903690600401610923565b918282823760208184810160018152030190209160ff600284015460481c16156108ff5760206001840154604051908152f35b6103e96040519283926321746f9160e21b8452602060048501526024840191610950565b9181601f840112156103bc578235916001600160401b0383116103bc57602083818601950101116103bc57565b908060209392818452848401375f828201840152601f01601f1916010190565b60a081019081106001600160401b038211176103a857604052565b90601f801991011681019081106001600160401b038211176103a857604052565b90600182811c921680156109da575b60208310146109c657565b634e487b7160e01b5f52602260045260245ffd5b91607f16916109bb56fea2646970667358221220659e1fde5c22cb23efc6b760b9dbaa653b635072061fea57e3c05fff42376e8b64736f6c63430008180033","linkReferences":{}},"methodIdentifiers":{"agentCount()":"b7dc1284","casperAccountOf(string)":"36daa135","getAgent(string)":"794464e9","isActive(string)":"c8902a21","isRegistered(string)":"c822d7f0","mirrorAgent(string,string,bytes32)":"f6a9f599","owner()":"8da5cb5b","setAgentActive(string,bool)":"47edb673","transferOwnership(address)":"f2fde38b"},"id":11}