{"abi":[{"type":"constructor","inputs":[{"name":"initialOwner","type":"address","internalType":"address"}],"stateMutability":"nonpayable"},{"type":"function","name":"owner","inputs":[],"outputs":[{"name":"","type":"address","internalType":"address"}],"stateMutability":"view"},{"type":"function","name":"pause","inputs":[],"outputs":[],"stateMutability":"nonpayable"},{"type":"function","name":"paused","inputs":[],"outputs":[{"name":"","type":"bool","internalType":"bool"}],"stateMutability":"view"},{"type":"function","name":"requireNotPaused","inputs":[],"outputs":[],"stateMutability":"view"},{"type":"function","name":"transferOwnership","inputs":[{"name":"newOwner","type":"address","internalType":"address"}],"outputs":[],"stateMutability":"nonpayable"},{"type":"function","name":"unpause","inputs":[],"outputs":[],"stateMutability":"nonpayable"},{"type":"event","name":"OwnershipTransferred","inputs":[{"name":"previousOwner","type":"address","indexed":true,"internalType":"address"},{"name":"newOwner","type":"address","indexed":true,"internalType":"address"}],"anonymous":false},{"type":"event","name":"Paused","inputs":[{"name":"by","type":"address","indexed":true,"internalType":"address"}],"anonymous":false},{"type":"event","name":"Unpaused","inputs":[{"name":"by","type":"address","indexed":true,"internalType":"address"}],"anonymous":false},{"type":"error","name":"EnforcedPause","inputs":[]},{"type":"error","name":"NotOwner","inputs":[{"name":"caller","type":"address","internalType":"address"}]},{"type":"error","name":"ZeroOwner","inputs":[]}],"bytecode":{"object":"0x6080346100af57601f61033b38819003918201601f19168301916001600160401b038311848410176100b3578084926020946040528339810103126100af57516001600160a01b038116908190036100af57801561009d575f80546001600160a01b0319168217815560405191907f8be0079c531659141344cd1fd0a4f28419497f9722a3daafe3b4186f6b6457e08180a361027390816100c88239f35b604051639905827b60e01b8152600490fd5b5f80fd5b634e487b7160e01b5f52604160045260245ffdfe6080604081815260049182361015610015575f80fd5b5f3560e01c9081633f4ba83a146101d2575080635c975abb146101ad5780637d6a5f7b146101815780638456cb59146101225780638da5cb5b146100fb5763f2fde38b14610061575f80fd5b346100f75760203660031901126100f7576001600160a01b03823581811693908490036100f7575f54918216928333036100e05784156100d35750506001600160a01b03191682175f9081557f8be0079c531659141344cd1fd0a4f28419497f9722a3daafe3b4186f6b6457e09080a3005b51639905827b60e01b8152fd5b60249250519063245aecd360e01b82523390820152fd5b5f80fd5b50346100f7575f3660031901126100f7575f5490516001600160a01b039091168152602090f35b5090346100f7575f3660031901126100f7575f54916001600160a01b03831633036100e05760ff60a01b198316600160a01b175f90815533907f62e78cea01bee320cd4e420270b5ea74000d11b0c9f74754ebdbfc544b05a2589080a2005b50346100f7575f3660031901126100f75760ff5f5460a01c166101a057005b5163d93c066560e01b8152fd5b50346100f7575f3660031901126100f75760209060ff5f5460a01c1690519015158152f35b8390346100f7575f3660031901126100f7575f54916001600160a01b0383163303610228578260ff60a01b19165f55337f5db9ee0a495bf2e6ff9c91a7834c1ba4fdd244a5e8aa4e537bd38aeae4b073aa5f80a2005b63245aecd360e01b8252339082015260249150fdfea2646970667358221220bc453bda01cad4993740432a517e156de4a89ee591808a11fbc8783c9b729a7f64736f6c63430008180033","linkReferences":{}},"methodIdentifiers":{"owner()":"8da5cb5b","pause()":"8456cb59","paused()":"5c975abb","requireNotPaused()":"7d6a5f7b","transferOwnership(address)":"f2fde38b","unpause()":"3f4ba83a"},"id":4}