{"abi":[{"type":"constructor","inputs":[{"name":"initialOwner","type":"address","internalType":"address"}],"stateMutability":"nonpayable"},{"type":"function","name":"boundAddressOf","inputs":[{"name":"agentId","type":"string","internalType":"string"}],"outputs":[{"name":"","type":"address","internalType":"address"}],"stateMutability":"view"},{"type":"function","name":"getBinding","inputs":[{"name":"externalAddress","type":"address","internalType":"address"}],"outputs":[{"name":"","type":"tuple","internalType":"struct Cred402AddressBindingMirror.Binding","components":[{"name":"agentId","type":"string","internalType":"string"},{"name":"casperAccount","type":"bytes32","internalType":"bytes32"},{"name":"externalChain","type":"string","internalType":"string"},{"name":"externalAddress","type":"address","internalType":"address"},{"name":"nonce","type":"bytes32","internalType":"bytes32"},{"name":"expiresAt","type":"uint64","internalType":"uint64"},{"name":"mirroredAt","type":"uint64","internalType":"uint64"},{"name":"exists","type":"bool","internalType":"bool"}]}],"stateMutability":"view"},{"type":"function","name":"isBound","inputs":[{"name":"agentId","type":"string","internalType":"string"},{"name":"externalAddress","type":"address","internalType":"address"}],"outputs":[{"name":"","type":"bool","internalType":"bool"}],"stateMutability":"view"},{"type":"function","name":"mirrorBinding","inputs":[{"name":"agentId","type":"string","internalType":"string"},{"name":"casperAccount","type":"bytes32","internalType":"bytes32"},{"name":"externalChain","type":"string","internalType":"string"},{"name":"externalAddress","type":"address","internalType":"address"},{"name":"nonce","type":"bytes32","internalType":"bytes32"},{"name":"expiresAt","type":"uint64","internalType":"uint64"}],"outputs":[],"stateMutability":"nonpayable"},{"type":"function","name":"owner","inputs":[],"outputs":[{"name":"","type":"address","internalType":"address"}],"stateMutability":"view"},{"type":"function","name":"revokeBinding","inputs":[{"name":"externalAddress","type":"address","internalType":"address"}],"outputs":[],"stateMutability":"nonpayable"},{"type":"function","name":"transferOwnership","inputs":[{"name":"newOwner","type":"address","internalType":"address"}],"outputs":[],"stateMutability":"nonpayable"},{"type":"event","name":"BindingMirrored","inputs":[{"name":"agentId","type":"string","indexed":true,"internalType":"string"},{"name":"externalAddress","type":"address","indexed":true,"internalType":"address"},{"name":"casperAccount","type":"bytes32","indexed":false,"internalType":"bytes32"},{"name":"externalChain","type":"string","indexed":false,"internalType":"string"},{"name":"nonce","type":"bytes32","indexed":false,"internalType":"bytes32"},{"name":"expiresAt","type":"uint64","indexed":false,"internalType":"uint64"}],"anonymous":false},{"type":"event","name":"BindingRevoked","inputs":[{"name":"agentId","type":"string","indexed":true,"internalType":"string"},{"name":"externalAddress","type":"address","indexed":true,"internalType":"address"}],"anonymous":false},{"type":"event","name":"OwnershipTransferred","inputs":[{"name":"previousOwner","type":"address","indexed":true,"internalType":"address"},{"name":"newOwner","type":"address","indexed":true,"internalType":"address"}],"anonymous":false},{"type":"error","name":"EmptyAgentId","inputs":[]},{"type":"error","name":"NotOwner","inputs":[{"name":"caller","type":"address","internalType":"address"}]},{"type":"error","name":"UnknownBinding","inputs":[{"name":"externalAddress","type":"address","internalType":"address"}]},{"type":"error","name":"ZeroAddress","inputs":[]},{"type":"error","name":"ZeroOwner","inputs":[]}],"bytecode":{"object":"0x6080346100af57601f610e0138819003918201601f19168301916001600160401b038311848410176100b3578084926020946040528339810103126100af57516001600160a01b038116908190036100af57801561009d575f80546001600160a01b0319168217815560405191907f8be0079c531659141344cd1fd0a4f28419497f9722a3daafe3b4186f6b6457e08180a3610d3990816100c88239f35b604051639905827b60e01b8152600490fd5b5f80fd5b634e487b7160e01b5f52604160045260245ffdfe6080806040526004361015610012575f80fd5b5f3560e01c90816307b4bdbc14610941575080630a7f87bd1461081c57806369de4a01146107c15780638da5cb5b1461079a578063ba6f136b146101cd578063c802044f146101055763f2fde38b14610069575f80fd5b3461010157602036600319011261010157610082610ad1565b5f54906001600160a01b0380831691338390036100e957169182156100d7576001600160a01b03191682175f9081557f8be0079c531659141344cd1fd0a4f28419497f9722a3daafe3b4186f6b6457e09080a3005b604051639905827b60e01b8152600490fd5b60405163245aecd360e01b8152336004820152602490fd5b5f80fd5b34610101576040366003190112610101576001600160401b0360043581811161010157610136903690600401610b2d565b6024356001600160a01b038116939290849003610101576020935f526001845260405f2060058101549360ff8560801c1694856101c0575b505083610183575b5050506040519015158152f35b6101b19293506101a361019c9160405192838092610bcf565b0382610b76565b848151910120923691610cbe565b82815191012014828080610176565b164211159350858061016e565b346101015760c0366003190112610101576004356001600160401b038111610101576101fd903690600401610b2d565b6044356001600160401b0381116101015761021c903690600401610b2d565b926064356001600160a01b03811681036101015760a435936001600160401b0385168503610101575f546001600160a01b031633036100e9576001600160a01b03821615610788578015610776576001600160a01b0382165f908152600160205260409020600581015460801c60ff1680610744575b6106a9575b50604051926102a584610b5a565b6102b0368383610cbe565b845260243560208501526102c5368887610cbe565b6040858101919091526001600160a01b0384166060860181905260843560808701526001600160401b0388811660a088015242811660c0880152600160e088018190525f92835260205291902085518051919282116105f2576103288354610b97565b601f8111610679575b50602090601f83116001146106115761036192915f9183610606575b50508160011b915f199060031b1c19161790565b81555b6020850151600182015560408501519485516001600160401b0381116105f25789966103936002850154610b97565b601f81116105b4575b50602090601f831160011461051457926103fd8360a09997946001600160401b0397947fe36e7b57ba1a37634cd96725a747bd8da654f6039aed77db22266a151fec6c499d9a975f926105095750508160011b915f199060031b1c19161790565b60028301555b600560038301926001808b1b03606084015116936bffffffffffffffffffffffff8b1b9485825416179055608083015160048201550190858982015116908254916fffffffffffffffff000000000000000060c083015160401b169160e060ff60801b910151151560801b169270ffffffffffffffffffffffffffffffffff1916171717905560405183838237602081858101600281520301902090600180891b0386169082541617905581604051928392833781015f815203902096604051958694602435865260806020870152816080870152868601375f848a0186015260843560408501521660608301525f196001841b011695601f01601f19168101030190a3005b015190508f8061034d565b90600285015f5260205f20915f5b601f19851681106105995750836001600160401b0396937fe36e7b57ba1a37634cd96725a747bd8da654f6039aed77db22266a151fec6c499c99969360019360a09c9a97601f19811610610581575b505050811b016002830155610403565b01515f1960f88460031b161c191690558e8080610571565b8183015184558d9a5060019093019260209283019201610522565b6105e290600286015f5260205f20601f850160051c810191602086106105e8575b601f0160051c0190610c60565b8b61039c565b90915081906105d5565b634e487b7160e01b5f52604160045260245ffd5b015190508b8061034d565b9190835f5260205f20905f935b601f198416851061065e576001945083601f19811610610646575b505050811b018155610364565b01515f1960f88460031b161c191690558a8080610639565b8181015183556020948501946001909301929091019061061e565b6106a390845f5260205f20601f850160051c810191602086106105e857601f0160051c0190610c60565b8a610331565b60405190815f8254926106bb84610b97565b936001811690811561072a57506001146106f1575b50600281520360200190912080546001600160a01b03191690555086610297565b9150505f528160205f205f905b83821061071257505060209181018a6106d0565b602091925080600191548487015201910183916106fe565b60ff191684525060209380151502830191508b90506106d0565b506040516107568161019c8185610bcf565b60208151910120610768368487610cbe565b602081519101201415610292565b604051633f7f02e960e01b8152600490fd5b60405163d92e233d60e01b8152600490fd5b34610101575f366003190112610101575f546040516001600160a01b039091168152602090f35b34610101576020366003190112610101576004356001600160401b038111610101576107f36020913690600401610b2d565b80604051928337600290820190815281900382019020546040516001600160a01b039091168152f35b3461010157602036600319011261010157610835610ad1565b5f546001600160a01b039190821633036100e95716805f52600160205260405f2060ff600582015460801c16156109285761019c61087c6108fd9260405192838092610bcf565b6040519080519160208181840194610895818388610ae7565b810160028152030190206bffffffffffffffffffffffff60a01b8154169055835f5260016020525f6005604082206108cc81610c76565b8260018201556108de60028201610c76565b8260038201558260048201550155604051928392839251928391610ae7565b81010390207fb2a893c7aaa162841895d5e0cc2e2f074641bce3e4283f9a46bac2f21af5449a5f80a3005b604051636ab2a8d560e11b815260048101839052602490fd5b3461010157602080600319360112610101575f60e061095e610ad1565b9361096881610b5a565b606081528284820152606060408201528260608201528260808201528260a08201528260c0820152015260018060a01b0380921691825f526001825260405f2091604051926109b684610b5a565b6040516109c78161019c8185610bcf565b8452600181015492828501938452604051956109f1876109ea8160028701610bcf565b0388610b76565b604086019687528160038401541694606087019586526005600485015494608089019586520154936001600160401b039360a0890192858716845260c08a0194868860401c16865260ff60e08c019860801c161580158952610ab9575090859392916040519b8c9b8a8d52518c6101009b8c9101526101208d01610a7491610b08565b915160408d0152518b8203601f190160608d0152610a929190610b08565b98511660808a01525160a0890152511660c0870152511660e0850152511515908301520390f35b60249060405190636ab2a8d560e11b82526004820152fd5b600435906001600160a01b038216820361010157565b5f5b838110610af85750505f910152565b8181015183820152602001610ae9565b90602091610b2181518092818552858086019101610ae7565b601f01601f1916010190565b9181601f84011215610101578235916001600160401b038311610101576020838186019501011161010157565b61010081019081106001600160401b038211176105f257604052565b90601f801991011681019081106001600160401b038211176105f257604052565b90600182811c92168015610bc5575b6020831014610bb157565b634e487b7160e01b5f52602260045260245ffd5b91607f1691610ba6565b80545f9392610bdd82610b97565b918282526020936001916001811690815f14610c415750600114610c03575b5050505050565b90939495505f92919252835f2092845f945b838610610c2d57505050500101905f80808080610bfc565b805485870183015294019385908201610c15565b60ff19168685015250505090151560051b010191505f80808080610bfc565b818110610c6b575050565b5f8155600101610c60565b610c808154610b97565b9081610c8a575050565b81601f5f9311600114610c9b575055565b908083918252610cba601f60208420940160051c840160018501610c60565b5555565b9291926001600160401b0382116105f25760405191610ce7601f8201601f191660200184610b76565b829481845281830111610101578281602093845f96013701015256fea2646970667358221220d792d00505e3def31f90485f4e43444faff639f176b2c2ae9dc0dbd3532780d564736f6c63430008180033","linkReferences":{}},"methodIdentifiers":{"boundAddressOf(string)":"69de4a01","getBinding(address)":"07b4bdbc","isBound(string,address)":"c802044f","mirrorBinding(string,bytes32,string,address,bytes32,uint64)":"ba6f136b","owner()":"8da5cb5b","revokeBinding(address)":"0a7f87bd","transferOwnership(address)":"f2fde38b"},"id":0}