{"abi":[{"type":"constructor","inputs":[{"name":"initialOwner","type":"address","internalType":"address"}],"stateMutability":"nonpayable"},{"type":"function","name":"assetCount","inputs":[],"outputs":[{"name":"","type":"uint256","internalType":"uint256"}],"stateMutability":"view"},{"type":"function","name":"assetKeyAt","inputs":[{"name":"index","type":"uint256","internalType":"uint256"}],"outputs":[{"name":"","type":"bytes32","internalType":"bytes32"}],"stateMutability":"view"},{"type":"function","name":"getAsset","inputs":[{"name":"uaid","type":"string","internalType":"string"}],"outputs":[{"name":"","type":"tuple","internalType":"struct Cred402RWAMirror.RWAAsset","components":[{"name":"uaid","type":"string","internalType":"string"},{"name":"assetType","type":"string","internalType":"string"},{"name":"jurisdiction","type":"string","internalType":"string"},{"name":"documentBundleHash","type":"bytes32","internalType":"bytes32"},{"name":"localWrapper","type":"address","internalType":"address"},{"name":"valuation","type":"uint256","internalType":"uint256"},{"name":"status","type":"uint8","internalType":"enum Cred402RWAMirror.AssetStatus"},{"name":"mirroredAt","type":"uint64","internalType":"uint64"},{"name":"exists","type":"bool","internalType":"bool"}]}],"stateMutability":"view"},{"type":"function","name":"getAssetByKey","inputs":[{"name":"key","type":"bytes32","internalType":"bytes32"}],"outputs":[{"name":"","type":"tuple","internalType":"struct Cred402RWAMirror.RWAAsset","components":[{"name":"uaid","type":"string","internalType":"string"},{"name":"assetType","type":"string","internalType":"string"},{"name":"jurisdiction","type":"string","internalType":"string"},{"name":"documentBundleHash","type":"bytes32","internalType":"bytes32"},{"name":"localWrapper","type":"address","internalType":"address"},{"name":"valuation","type":"uint256","internalType":"uint256"},{"name":"status","type":"uint8","internalType":"enum Cred402RWAMirror.AssetStatus"},{"name":"mirroredAt","type":"uint64","internalType":"uint64"},{"name":"exists","type":"bool","internalType":"bool"}]}],"stateMutability":"view"},{"type":"function","name":"isActive","inputs":[{"name":"uaid","type":"string","internalType":"string"}],"outputs":[{"name":"","type":"bool","internalType":"bool"}],"stateMutability":"view"},{"type":"function","name":"mirrorAsset","inputs":[{"name":"uaid","type":"string","internalType":"string"},{"name":"assetType","type":"string","internalType":"string"},{"name":"jurisdiction","type":"string","internalType":"string"},{"name":"documentBundleHash","type":"bytes32","internalType":"bytes32"},{"name":"localWrapper","type":"address","internalType":"address"},{"name":"valuation","type":"uint256","internalType":"uint256"}],"outputs":[],"stateMutability":"nonpayable"},{"type":"function","name":"owner","inputs":[],"outputs":[{"name":"","type":"address","internalType":"address"}],"stateMutability":"view"},{"type":"function","name":"setStatus","inputs":[{"name":"uaid","type":"string","internalType":"string"},{"name":"status","type":"uint8","internalType":"enum Cred402RWAMirror.AssetStatus"}],"outputs":[],"stateMutability":"nonpayable"},{"type":"function","name":"setValuation","inputs":[{"name":"uaid","type":"string","internalType":"string"},{"name":"valuation","type":"uint256","internalType":"uint256"}],"outputs":[],"stateMutability":"nonpayable"},{"type":"function","name":"transferOwnership","inputs":[{"name":"newOwner","type":"address","internalType":"address"}],"outputs":[],"stateMutability":"nonpayable"},{"type":"function","name":"uaidKey","inputs":[{"name":"uaid","type":"string","internalType":"string"}],"outputs":[{"name":"","type":"bytes32","internalType":"bytes32"}],"stateMutability":"pure"},{"type":"event","name":"OwnershipTransferred","inputs":[{"name":"previousOwner","type":"address","indexed":true,"internalType":"address"},{"name":"newOwner","type":"address","indexed":true,"internalType":"address"}],"anonymous":false},{"type":"event","name":"RWAMirrored","inputs":[{"name":"uaidKey","type":"bytes32","indexed":true,"internalType":"bytes32"},{"name":"uaid","type":"string","indexed":false,"internalType":"string"},{"name":"assetType","type":"string","indexed":false,"internalType":"string"},{"name":"jurisdiction","type":"string","indexed":false,"internalType":"string"},{"name":"localWrapper","type":"address","indexed":false,"internalType":"address"},{"name":"valuation","type":"uint256","indexed":false,"internalType":"uint256"}],"anonymous":false},{"type":"event","name":"RWAStatusChanged","inputs":[{"name":"uaidKey","type":"bytes32","indexed":true,"internalType":"bytes32"},{"name":"status","type":"uint8","indexed":false,"internalType":"enum Cred402RWAMirror.AssetStatus"}],"anonymous":false},{"type":"event","name":"RWAValuationChanged","inputs":[{"name":"uaidKey","type":"bytes32","indexed":true,"internalType":"bytes32"},{"name":"valuation","type":"uint256","indexed":false,"internalType":"uint256"}],"anonymous":false},{"type":"error","name":"EmptyUaid","inputs":[]},{"type":"error","name":"NotOwner","inputs":[{"name":"caller","type":"address","internalType":"address"}]},{"type":"error","name":"UnknownAsset","inputs":[{"name":"uaidKey","type":"bytes32","internalType":"bytes32"}]},{"type":"error","name":"ZeroOwner","inputs":[]}],"bytecode":{"object":"0x6080346100af57601f6110a138819003918201601f19168301916001600160401b038311848410176100b3578084926020946040528339810103126100af57516001600160a01b038116908190036100af57801561009d575f80546001600160a01b0319168217815560405191907f8be0079c531659141344cd1fd0a4f28419497f9722a3daafe3b4186f6b6457e08180a3610fd990816100c88239f35b604051639905827b60e01b8152600490fd5b5f80fd5b634e487b7160e01b5f52604160045260245ffdfe60806040526004361015610011575f80fd5b5f3560e01c80636728c30114610c24578063789c94c314610b535780638da5cb5b14610b2c57806392fa58d914610a84578063974215e61461041d578063a1ed718f146103cc578063c8902a2114610335578063cd5286d014610221578063deaab7a91461014d578063eafe7a74146101305763f2fde38b14610092575f80fd5b3461012c57602036600319011261012c576004356001600160a01b038181169182900361012c575f5490811690813303610114578215610102576001600160a01b03191682175f9081557f8be0079c531659141344cd1fd0a4f28419497f9722a3daafe3b4186f6b6457e09080a3005b604051639905827b60e01b8152600490fd5b60405163245aecd360e01b8152336004820152602490fd5b5f80fd5b3461012c575f36600319011261012c576020600254604051908152f35b3461012c57604036600319011261012c576004356001600160401b03811161012c5761017d903690600401610d47565b60243591600483101561012c575f546001600160a01b03163303610114576101a6913691610db1565b6020815191012090815f526001602052600660405f200160ff815460481c161561020857816101f87f298757b8b104ee2475d7ac102da2bc33c3cc6177e319ef691fca8e538243298093602093610f6b565b6102056040518092610c8e565ba2005b60405163082cdf1f60e11b815260048101849052602490fd5b3461012c57602036600319011261012c576001600160401b0360043581811161012c57610255610265913690600401610d47565b61025d610e3f565b503691610db1565b60208151910120805f52600160205260ff60405f209260066040519461028a86610d74565b61029381610ebd565b86526102a160018201610ebd565b60208701526102b260028201610ebd565b60408701526003810154606087015260048101546001600160a01b03166080870152600581015460a08701520154906102f083831660c08701610f5f565b8160081c1660e085015260481c1615801561010084015261031d57604051806103198482610c9b565b0390f35b6024906040519063082cdf1f60e11b82526004820152fd5b3461012c57602036600319011261012c576004356001600160401b03811161012c5761036861036f913690600401610d47565b3691610db1565b602081519101205f526001602052600660405f20015460ff8160481c1690816103a0575b6020826040519015158152f35b60ff91501660048110156103b8576001146020610393565b634e487b7160e01b5f52602160045260245ffd5b3461012c57602036600319011261012c576004356001600160401b03811161012c573660238201121561012c5761040f6020913690602481600401359101610db1565b818151910120604051908152f35b3461012c5760c036600319011261012c576004356001600160401b03811161012c5761044d903690600401610d47565b6024356001600160401b03811161012c5761046c903690600401610d47565b9290916044356001600160401b03811161012c5761048e903690600401610d47565b60843591906001600160a01b038316830361012c575f546001600160a01b03163303610114578315610a72576104c5368587610db1565b6020815191012096875f526001602052600660405f20015460ff8160481c165f14610a6a5760ff8116905b6105556040519261050084610d74565b61050b368a8c610db1565b845261051836868d610db1565b6020850152610528368789610db1565b604085015260643560608501526001600160a01b038816608085015260a43560a085015260c08401610f5f565b6001600160401b03421660e08301526001610100830152895f52600160205260405f2082518051906001600160401b03821161080f5781906105978454610e85565b601f8111610a1d575b50602090601f83116001146109b5575f926109aa575b50508160011b915f199060031b1c19161781555b60208301518051906001600160401b03821161080f5781906105ef6001850154610e85565b601f811161095a575b50602090601f83116001146108ec575f926108e1575b50508160011b915f199060031b1c19161760018201555b60408301518051906001600160401b03821161080f576106486002840154610e85565b601f811161089d575b50602090601f831160011461082e5760069392915f9183610823575b50508160011b915f199060031b1c19161760028201555b606084015160038201556004810160018060a01b036080860151166bffffffffffffffffffffffff60a01b82541617905560a084015160058201550160c08301519260048410156103b8576106db60ff9483610f6b565b60e08101519068ffffffffffffffff0069ff0000000000000000006101008554930151151560481b169260081b169069ffffffffffffffffff0019161717905560481c16156107a0575b906107757fca6e60eede0a1d9427b8f79624d5616c06cf348b9a163988121b0e261b8b801f976107839493610767604051998a9960a08b5260a08b0191610f83565b9188830360208a0152610f83565b918583036040870152610f83565b6001600160a01b03909116606083015260a43560808301520390a2005b91906002546801000000000000000081101561080f577fca6e60eede0a1d9427b8f79624d5616c06cf348b9a163988121b0e261b8b801f97610783946107ef8360016107759501600255610df6565b81549060031b908d821b915f19901b191617905592939450975050610725565b634e487b7160e01b5f52604160045260245ffd5b015190508e8061066d565b90600284015f5260205f20915f5b601f1985168110610885575091839160019360069695601f1981161061086d575b505050811b016002820155610684565b01515f1960f88460031b161c191690558e808061085d565b9192602060018192868501518155019401920161083c565b600284015f5260205f20601f840160051c8101602085106108da575b601f830160051c820181106108cf575050610651565b5f81556001016108b9565b50806108b9565b015190508d8061060e565b9250600184015f5260205f20905f935b601f198416851061093f576001945083601f19811610610927575b505050811b016001820155610625565b01515f1960f88460031b161c191690558d8080610917565b818101518355602094850194600190930192909101906108fc565b909150600184015f5260205f20601f840160051c8101602085106109a3575b90849392915b601f830160051c820181106109955750506105f8565b5f815585945060010161097f565b5080610979565b015190508d806105b6565b9250835f5260205f20905f935b601f1984168510610a02576001945083601f198116106109ea575b505050811b0181556105ca565b01515f1960f88460031b161c191690558d80806109dd565b818101518355602094850194600190930192909101906109c2565b909150835f5260205f20601f840160051c810160208510610a63575b90849392915b601f830160051c82018110610a555750506105a0565b5f8155859450600101610a3f565b5080610a39565b6001906104f0565b60405163f9b194d160e01b8152600490fd5b3461012c57604036600319011261012c576004356001600160401b03811161012c57610ab4903690600401610d47565b5f5460243592906001600160a01b0316330361011457610ad5913691610db1565b6020815191012090815f52600160205260405f2060ff600682015460481c161561020857817fa7a3194dea195a532574200ffbdb5256e991151e016bdb19f7a6278e6257a3ab9260056020930155604051908152a2005b3461012c575f36600319011261012c575f546040516001600160a01b039091168152602090f35b3461012c57602036600319011261012c57600435610b6f610e3f565b50805f52600160205260405f209060ff600660405193610b8e85610d74565b610b9781610ebd565b8552610ba560018201610ebd565b6020860152610bb660028201610ebd565b60408601526003810154606086015260048101546001600160a01b03166080860152600581015460a08601520154610bf382821660c08601610f5f565b6001600160401b038160081c1660e085015260481c1615801561010084015261031d57604051806103198482610c9b565b3461012c57602036600319011261012c576020610c42600435610df6565b90546040519160031b1c8152f35b91908251928382525f5b848110610c7a575050825f602080949584010152601f8019910116010190565b602081830181015184830182015201610c5a565b9060048210156103b85752565b602081528151610ced610cbc61012092836020860152610140850190610c50565b610cd8602086015191601f199283878303016040880152610c50565b90604086015190858303016060860152610c50565b926060810151608084015260018060a01b0360808201511660a084015260a081015160c0840152610d2660c082015160e0850190610c8e565b60e0810151906001600160401b036101009216828501520151151591015290565b9181601f8401121561012c578235916001600160401b03831161012c576020838186019501011161012c57565b61012081019081106001600160401b0382111761080f57604052565b90601f801991011681019081106001600160401b0382111761080f57604052565b9291926001600160401b03821161080f5760405191610dda601f8201601f191660200184610d90565b82948184528183011161012c578281602093845f960137010152565b600254811015610e2b5760025f527f405787fa12a823e0f2b7631cc41b3ba8828b3321ca811111fa75cd3aa3bb5ace01905f90565b634e487b7160e01b5f52603260045260245ffd5b60405190610e4c82610d74565b5f610100836060815260606020820152606060408201528260608201528260808201528260a08201528260c08201528260e08201520152565b90600182811c92168015610eb3575b6020831014610e9f57565b634e487b7160e01b5f52602260045260245ffd5b91607f1691610e94565b9060405191825f8254610ecf81610e85565b908184526020946001916001811690815f14610f3d5750600114610eff575b505050610efd92500383610d90565b565b5f90815285812095935091905b818310610f25575050610efd93508201015f8080610eee565b85548884018501529485019487945091830191610f0c565b92505050610efd94925060ff191682840152151560051b8201015f8080610eee565b60048210156103b85752565b9060048110156103b85760ff80198354169116179055565b908060209392818452848401375f828201840152601f01601f191601019056fea2646970667358221220b685afe53c7b7b83702f6efd04a61b42643ebc26427cf4e2aa69a86c54fcbe4164736f6c63430008180033","linkReferences":{}},"methodIdentifiers":{"assetCount()":"eafe7a74","assetKeyAt(uint256)":"6728c301","getAsset(string)":"cd5286d0","getAssetByKey(bytes32)":"789c94c3","isActive(string)":"c8902a21","mirrorAsset(string,string,string,bytes32,address,uint256)":"974215e6","owner()":"8da5cb5b","setStatus(string,uint8)":"deaab7a9","setValuation(string,uint256)":"92fa58d9","transferOwnership(address)":"f2fde38b","uaidKey(string)":"a1ed718f"},"id":7}